{"abi":[{"type":"constructor","inputs":[{"name":"initialOwner","type":"address","internalType":"address"},{"name":"initialAttestationService","type":"address","internalType":"address"}],"stateMutability":"nonpayable"},{"type":"function","name":"attestationService","inputs":[],"outputs":[{"name":"","type":"address","internalType":"address"}],"stateMutability":"view"},{"type":"function","name":"chillNode","inputs":[{"name":"nodeId","type":"bytes32","internalType":"bytes32"}],"outputs":[],"stateMutability":"nonpayable"},{"type":"function","name":"encryptionKeys","inputs":[{"name":"nodeId","type":"bytes32","internalType":"bytes32"},{"name":"version","type":"uint32","internalType":"uint32"}],"outputs":[{"name":"pubkey","type":"bytes32","internalType":"bytes32"},{"name":"activatedAt","type":"uint64","internalType":"uint64"},{"name":"deprecatedAt","type":"uint64","internalType":"uint64"},{"name":"revoked","type":"bool","internalType":"bool"}],"stateMutability":"view"},{"type":"function","name":"getMetadataURI","inputs":[{"name":"nodeId","type":"bytes32","internalType":"bytes32"}],"outputs":[{"name":"","type":"string","internalType":"string"}],"stateMutability":"view"},{"type":"function","name":"getProvider","inputs":[{"name":"nodeId","type":"bytes32","internalType":"bytes32"}],"outputs":[{"name":"","type":"tuple","internalType":"struct NodeInfo","components":[{"name":"payout","type":"address","internalType":"address"},{"name":"feeBps","type":"uint16","internalType":"uint16"},{"name":"active","type":"bool","internalType":"bool"},{"name":"supportsBestEffort","type":"bool","internalType":"bool"},{"name":"supportsTEE","type":"bool","internalType":"bool"},{"name":"teeReportHash","type":"bytes32","internalType":"bytes32"},{"name":"metadataURI","type":"string","internalType":"string"},{"name":"lifecycle","type":"uint8","internalType":"enum NodeLifecycle"},{"name":"encryptionPubkey","type":"bytes32","internalType":"bytes32"},{"name":"encryptionKeyVersion","type":"uint32","internalType":"uint32"},{"name":"encryptionKeysLastVersion","type":"uint32","internalType":"uint32"}]}],"stateMutability":"view"},{"type":"function","name":"markDefunct","inputs":[{"name":"nodeId","type":"bytes32","internalType":"bytes32"}],"outputs":[],"stateMutability":"nonpayable"},{"type":"function","name":"nodeOperator","inputs":[{"name":"nodeId","type":"bytes32","internalType":"bytes32"}],"outputs":[{"name":"operator","type":"address","internalType":"address"}],"stateMutability":"view"},{"type":"function","name":"nodes","inputs":[{"name":"nodeId","type":"bytes32","internalType":"bytes32"}],"outputs":[{"name":"payout","type":"address","internalType":"address"},{"name":"feeBps","type":"uint16","internalType":"uint16"},{"name":"active","type":"bool","internalType":"bool"},{"name":"supportsBestEffort","type":"bool","internalType":"bool"},{"name":"supportsTEE","type":"bool","internalType":"bool"},{"name":"teeReportHash","type":"bytes32","internalType":"bytes32"},{"name":"metadataURI","type":"string","internalType":"string"},{"name":"lifecycle","type":"uint8","internalType":"enum NodeLifecycle"},{"name":"encryptionPubkey","type":"bytes32","internalType":"bytes32"},{"name":"encryptionKeyVersion","type":"uint32","internalType":"uint32"},{"name":"encryptionKeysLastVersion","type":"uint32","internalType":"uint32"}],"stateMutability":"view"},{"type":"function","name":"operatorNodes","inputs":[{"name":"operator","type":"address","internalType":"address"}],"outputs":[{"name":"","type":"bytes32[]","internalType":"bytes32[]"}],"stateMutability":"view"},{"type":"function","name":"owner","inputs":[],"outputs":[{"name":"","type":"address","internalType":"address"}],"stateMutability":"view"},{"type":"function","name":"purgeDefunctNode","inputs":[{"name":"nodeId","type":"bytes32","internalType":"bytes32"}],"outputs":[],"stateMutability":"nonpayable"},{"type":"function","name":"registerNode","inputs":[{"name":"nodeId","type":"bytes32","internalType":"bytes32"},{"name":"payout","type":"address","internalType":"address"},{"name":"supportsBestEffort","type":"bool","internalType":"bool"},{"name":"supportsTEE","type":"bool","internalType":"bool"},{"name":"metadataURI","type":"string","internalType":"string"},{"name":"initialEncryptionPubkey","type":"bytes32","internalType":"bytes32"}],"outputs":[],"stateMutability":"nonpayable"},{"type":"function","name":"revokeEncryptionKey","inputs":[{"name":"nodeId","type":"bytes32","internalType":"bytes32"},{"name":"version","type":"uint32","internalType":"uint32"}],"outputs":[],"stateMutability":"nonpayable"},{"type":"function","name":"rotateEncryptionKey","inputs":[{"name":"nodeId","type":"bytes32","internalType":"bytes32"},{"name":"newPubkey","type":"bytes32","internalType":"bytes32"},{"name":"gracePeriodSecs","type":"uint64","internalType":"uint64"}],"outputs":[],"stateMutability":"nonpayable"},{"type":"function","name":"setAttestationService","inputs":[{"name":"next","type":"address","internalType":"address"}],"outputs":[],"stateMutability":"nonpayable"},{"type":"function","name":"setNodeActive","inputs":[{"name":"nodeId","type":"bytes32","internalType":"bytes32"},{"name":"active","type":"bool","internalType":"bool"}],"outputs":[],"stateMutability":"nonpayable"},{"type":"function","name":"setNodeFee","inputs":[{"name":"nodeId","type":"bytes32","internalType":"bytes32"},{"name":"feeBps","type":"uint16","internalType":"uint16"}],"outputs":[],"stateMutability":"nonpayable"},{"type":"function","name":"setNodeMetadata","inputs":[{"name":"nodeId","type":"bytes32","internalType":"bytes32"},{"name":"uri","type":"string","internalType":"string"}],"outputs":[],"stateMutability":"nonpayable"},{"type":"function","name":"setNodePayout","inputs":[{"name":"nodeId","type":"bytes32","internalType":"bytes32"},{"name":"payout","type":"address","internalType":"address"}],"outputs":[],"stateMutability":"nonpayable"},{"type":"function","name":"setSettlementEscrow","inputs":[{"name":"escrow","type":"address","internalType":"address"}],"outputs":[],"stateMutability":"nonpayable"},{"type":"function","name":"setTEEProof","inputs":[{"name":"nodeId","type":"bytes32","internalType":"bytes32"},{"name":"teeReportHash","type":"bytes32","internalType":"bytes32"}],"outputs":[],"stateMutability":"nonpayable"},{"type":"function","name":"settlementEscrow","inputs":[],"outputs":[{"name":"","type":"address","internalType":"address"}],"stateMutability":"view"},{"type":"function","name":"supportsTier","inputs":[{"name":"nodeId","type":"bytes32","internalType":"bytes32"},{"name":"tier","type":"uint8","internalType":"enum SecurityTier"}],"outputs":[{"name":"","type":"bool","internalType":"bool"}],"stateMutability":"view"},{"type":"function","name":"transferOwnership","inputs":[{"name":"newOwner","type":"address","internalType":"address"}],"outputs":[],"stateMutability":"nonpayable"},{"type":"event","name":"AttestationServiceUpdated","inputs":[{"name":"previous","type":"address","indexed":true,"internalType":"address"},{"name":"next","type":"address","indexed":true,"internalType":"address"}],"anonymous":false},{"type":"event","name":"EncryptionKeyRevoked","inputs":[{"name":"nodeId","type":"bytes32","indexed":true,"internalType":"bytes32"},{"name":"version","type":"uint32","indexed":false,"internalType":"uint32"}],"anonymous":false},{"type":"event","name":"EncryptionKeyRotated","inputs":[{"name":"nodeId","type":"bytes32","indexed":true,"internalType":"bytes32"},{"name":"newVersion","type":"uint32","indexed":false,"internalType":"uint32"},{"name":"newPubkey","type":"bytes32","indexed":false,"internalType":"bytes32"},{"name":"previousVersion","type":"uint32","indexed":false,"internalType":"uint32"},{"name":"gracePeriodEnd","type":"uint64","indexed":false,"internalType":"uint64"}],"anonymous":false},{"type":"event","name":"NodeActiveUpdated","inputs":[{"name":"nodeId","type":"bytes32","indexed":true,"internalType":"bytes32"},{"name":"active","type":"bool","indexed":false,"internalType":"bool"}],"anonymous":false},{"type":"event","name":"NodeChilled","inputs":[{"name":"nodeId","type":"bytes32","indexed":true,"internalType":"bytes32"},{"name":"operator","type":"address","indexed":true,"internalType":"address"}],"anonymous":false},{"type":"event","name":"NodeFeeUpdated","inputs":[{"name":"nodeId","type":"bytes32","indexed":true,"internalType":"bytes32"},{"name":"feeBps","type":"uint16","indexed":false,"internalType":"uint16"}],"anonymous":false},{"type":"event","name":"NodeMarkedDefunct","inputs":[{"name":"nodeId","type":"bytes32","indexed":true,"internalType":"bytes32"},{"name":"operator","type":"address","indexed":true,"internalType":"address"}],"anonymous":false},{"type":"event","name":"NodeMetadataUpdated","inputs":[{"name":"nodeId","type":"bytes32","indexed":true,"internalType":"bytes32"},{"name":"metadataURI","type":"string","indexed":false,"internalType":"string"}],"anonymous":false},{"type":"event","name":"NodePayoutUpdated","inputs":[{"name":"nodeId","type":"bytes32","indexed":true,"internalType":"bytes32"},{"name":"payout","type":"address","indexed":false,"internalType":"address"}],"anonymous":false},{"type":"event","name":"NodePurged","inputs":[{"name":"nodeId","type":"bytes32","indexed":true,"internalType":"bytes32"},{"name":"operator","type":"address","indexed":true,"internalType":"address"}],"anonymous":false},{"type":"event","name":"NodeRegistered","inputs":[{"name":"nodeId","type":"bytes32","indexed":true,"internalType":"bytes32"},{"name":"operator","type":"address","indexed":true,"internalType":"address"},{"name":"metadataURI","type":"string","indexed":false,"internalType":"string"}],"anonymous":false},{"type":"event","name":"OwnershipTransferred","inputs":[{"name":"previousOwner","type":"address","indexed":true,"internalType":"address"},{"name":"newOwner","type":"address","indexed":true,"internalType":"address"}],"anonymous":false},{"type":"event","name":"SettlementEscrowUpdated","inputs":[{"name":"previous","type":"address","indexed":true,"internalType":"address"},{"name":"next","type":"address","indexed":true,"internalType":"address"}],"anonymous":false},{"type":"event","name":"TEEProofSet","inputs":[{"name":"nodeId","type":"bytes32","indexed":true,"internalType":"bytes32"},{"name":"teeReportHash","type":"bytes32","indexed":false,"internalType":"bytes32"}],"anonymous":false},{"type":"error","name":"EncryptionKeyAlreadyRevoked","inputs":[]},{"type":"error","name":"EncryptionKeyNotFound","inputs":[]},{"type":"error","name":"EscrowNotConfigured","inputs":[]},{"type":"error","name":"GracePeriodTooLong","inputs":[]},{"type":"error","name":"InvalidLifecycle","inputs":[]},{"type":"error","name":"InvalidTEEProof","inputs":[]},{"type":"error","name":"NodeAlreadyRegistered","inputs":[]},{"type":"error","name":"NodeNotRegistered","inputs":[]},{"type":"error","name":"NotAttestationService","inputs":[]},{"type":"error","name":"NotNodeOperator","inputs":[]},{"type":"error","name":"NotOwner","inputs":[]},{"type":"error","name":"OpenSessionsRemain","inputs":[]},{"type":"error","name":"ZeroAddress","inputs":[]},{"type":"error","name":"ZeroEncryptionPubkey","inputs":[]},{"type":"error","name":"ZeroNodeId","inputs":[]}],"bytecode":{"object":"0x6080604052348015600f57600080fd5b50604051612829380380612829833981016040819052602c91609d565b6001600160a01b03821660525760405163d92e233d60e01b815260040160405180910390fd5b600080546001600160a01b039384166001600160a01b0319918216179091556001805492909316911617905560cb565b80516001600160a01b0381168114609857600080fd5b919050565b6000806040838503121560af57600080fd5b60b6836082565b915060c2602084016082565b90509250929050565b61274f806100da6000396000f3fe608060405234801561001057600080fd5b50600436106101585760003560e01c806372ef2418116100c3578063a558b1831161007c578063a558b18314610391578063bd13381b146103a4578063ce28ca3e146103b7578063d86e697d146103ca578063f2fde38b146103f4578063f36551f81461040757600080fd5b806372ef24181461031f57806376a67a9c146103325780637ed5f2561461034557806388328b75146103585780638cd2b4db1461036b5780638da5cb5b1461037e57600080fd5b806333c0950a1161011557806333c0950a1461027d578063360c41071461029d5780635074961a146102c6578063637f267e146102d95780636640ac2a146102ec5780636d8857ae1461030c57600080fd5b8063030e30ae1461015d57806306778eac14610185578063113bb87e1461019a5780632cd04700146101ad5780632d4a3606146101d85780632f013de61461025d575b600080fd5b61017061016b366004611f0d565b61041a565b60405190151581526020015b60405180910390f35b610198610193366004611f41565b61061e565b005b6101986101a8366004611f76565b610811565b6001546101c0906001600160a01b031681565b6040516001600160a01b03909116815260200161017c565b61022b6101e6366004611f98565b6006602090815260009283526040808420909152908252902080546001909101546001600160401b0380821691600160401b810490911690600160801b900460ff1684565b60405161017c94939291909384526001600160401b039283166020850152911660408301521515606082015260800190565b61027061026b366004611f76565b610898565b60405161017c9190611fc6565b61029061028b366004611f41565b610904565b60405161017c9190612087565b6101c06102ab366004611f41565b6004602052600090815260409020546001600160a01b031681565b6101986102d436600461215f565b610ad4565b6101986102e7366004611f98565b610da2565b6102ff6102fa366004611f41565b610f23565b60405161017c91906121a4565b61019861031a3660046121ff565b610fbe565b61019861032d36600461224a565b611088565b610198610340366004612276565b61114e565b610198610353366004611f41565b611224565b6002546101c0906001600160a01b031681565b6101986103793660046122a8565b61135a565b6000546101c0906001600160a01b031681565b61019861039f3660046122d4565b611422565b6101986103b2366004611f41565b6114df565b6101986103c53660046122f7565b611686565b6103dd6103d8366004611f41565b611b99565b60405161017c9b9a9998979695949392919061237e565b610198610402366004611f76565b611ca6565b610198610415366004611f76565b611d53565b600082815260036020908152604080832081516101608101835281546001600160a01b038116825261ffff600160a01b8204169482019490945260ff600160b01b85048116151593820193909352600160b81b8404831615156060820152600160c01b90930490911615156080830152600181015460a08301526002810180548493929160c08401916104ac9061240f565b80601f01602080910402602001604051908101604052809291908181526020018280546104d89061240f565b80156105255780601f106104fa57610100808354040283529160200191610525565b820191906000526020600020905b81548152906001019060200180831161050857829003601f168201915b5050509183525050600382015460209091019060ff16600281111561054c5761054c61204f565b600281111561055d5761055d61204f565b81526004820154602082015260059091015463ffffffff8082166040840152600160201b90910416606090910152905060008160e0015160028111156105a5576105a561204f565b146105b4576000915050610618565b806040015115806105cd575080516001600160a01b0316155b156105dc576000915050610618565b60008360018111156105f0576105f061204f565b0361060057606001519050610618565b80608001518015610614575060a081015115155b9150505b92915050565b6000546001600160a01b03163314610649576040516330cd747160e01b815260040160405180910390fd5b6000818152600460205260409020546001600160a01b031661067d576040516229eaad60e31b815260040160405180910390fd5b60008181526003602052604090206002600382015460ff1660028111156106a6576106a661204f565b146106c4576040516318781b5160e01b815260040160405180910390fd5b60008281526004602052604090205460058201546001600160a01b0390911690600160201b900463ffffffff166106fb8285611dda565b60015b8163ffffffff168163ffffffff161161076057600085815260066020908152604080832063ffffffff851684529091528120908155600101805470ffffffffffffffffffffffffffffffffff19169055806107588161245f565b9150506106fe565b50600084815260036020526040812080546001600160c81b031916815560018101829055906107926002830182611eb7565b5060038101805460ff19169055600060048083018290556005909201805467ffffffffffffffff19169055858152602091909152604080822080546001600160a01b0319169055516001600160a01b0384169186917fd88e2da8c4a0b3e849aafbc70452bf8862bf1be7750c03e4dd7754f902adda8d9190a350505050565b6000546001600160a01b0316331461083c576040516330cd747160e01b815260040160405180910390fd5b6001546040516001600160a01b038084169216907f9d3dc309788965df6be6dbd87866c7caa51baab8d55bdb3d70418711c8692c4490600090a3600180546001600160a01b0319166001600160a01b0392909216919091179055565b6001600160a01b0381166000908152600560209081526040918290208054835181840281018401909452808452606093928301828280156108f857602002820191906000526020600020905b8154815260200190600101908083116108e4575b50505050509050919050565b604080516101608101825260008082526020820181905291810182905260608082018390526080820183905260a0820183905260c082015260e081018290526101008101829052610120810182905261014081019190915260008281526003602090815260409182902082516101608101845281546001600160a01b038116825261ffff600160a01b8204169382019390935260ff600160b01b84048116151594820194909452600160b81b8304841615156060820152600160c01b90920490921615156080820152600182015460a082015260028201805491929160c0840191906109ef9061240f565b80601f0160208091040260200160405190810160405280929190818152602001828054610a1b9061240f565b8015610a685780601f10610a3d57610100808354040283529160200191610a68565b820191906000526020600020905b815481529060010190602001808311610a4b57829003601f168201915b5050509183525050600382015460209091019060ff166002811115610a8f57610a8f61204f565b6002811115610aa057610aa061204f565b81526004820154602082015260059091015463ffffffff8082166040840152600160201b9091041660609091015292915050565b60008381526004602052604090205483906001600160a01b03163314610b0d57604051630d02d9fd60e21b815260040160405180910390fd5b6000848152600460205260409020546001600160a01b0316610b41576040516229eaad60e31b815260040160405180910390fd5b82610b5f5760405163c1eb385d60e01b815260040160405180910390fd5b60008481526003602052604081206005810154909163ffffffff80831692600160201b90041690610b91826001612484565b90504263ffffffff841615610c83576000610bb56001600160401b038916426124a0565b90506001600160401b03811115610bdf576040516370272fbb60e11b815260040160405180910390fd5b60008a815260066020908152604080832063ffffffff8981168086529184529382902060010180546fffffffffffffffff00000000000000001916600160401b6001600160401b03881690810291909117909155825194881685529284018d905290830152606082015290915081908a907f7c85d85e4ca2152fab2f4e1a0a2ede23d122efed048a7d5d087aa6fdd4ed96d49060800160405180910390a250610cdc565b6040805163ffffffff84168152602081018a90526000818301526001600160401b038316606082015290518a917f7c85d85e4ca2152fab2f4e1a0a2ede23d122efed048a7d5d087aa6fdd4ed96d4919081900360800190a25b50604080516080810182528881526001600160401b0342811660208084019182526000848601818152606086018281529e82526006835286822063ffffffff90981680835297909252949094209251835551600192909201805493519b511515600160801b0260ff60801b199c8316600160401b026001600160801b031990951693909216929092179290921799909916179097555050600481019390935550506005018054600160201b830267ffffffffffffffff1991909116909217919091179055565b60008281526004602052604090205482906001600160a01b03163314610ddb57604051630d02d9fd60e21b815260040160405180910390fd5b6000838152600460205260409020546001600160a01b0316610e0f576040516229eaad60e31b815260040160405180910390fd5b600083815260066020908152604080832063ffffffff8616845290915290208054158015610e48575060018101546001600160401b0316155b15610e6657604051631835193b60e11b815260040160405180910390fd5b6001810154600160801b900460ff1615610e9357604051632536d5b760e21b815260040160405180910390fd5b60018101805460ff60801b1916600160801b17905560405163ffffffff8416815284907fda8fa15d53dae2ddc0d7e7f90551aa07eddc38c7c94eb0ae4b84e6275b38f77e9060200160405180910390a26000848152600360205260409020600581015463ffffffff808616911603610f1c576000600482015560058101805463ffffffff191690555b5050505050565b6000818152600360205260409020600201805460609190610f439061240f565b80601f0160208091040260200160405190810160405280929190818152602001828054610f6f9061240f565b80156108f85780601f10610f91576101008083540402835291602001916108f8565b820191906000526020600020905b815481529060010190602001808311610f9f5750939695505050505050565b60008381526004602052604090205483906001600160a01b03163314610ff757604051630d02d9fd60e21b815260040160405180910390fd5b6000848152600460205260409020546001600160a01b031661102b576040516229eaad60e31b815260040160405180910390fd5b6000848152600360205260409020600201611047838583612515565b50837f82bc98c67900af2b993cb84242b1c178ad359842c3b76f0a810d9a253e12e3e7848460405161107a9291906125d4565b60405180910390a250505050565b6000546001600160a01b031633146110b3576040516330cd747160e01b815260040160405180910390fd5b6000828152600460205260409020546001600160a01b03166110e7576040516229eaad60e31b815260040160405180910390fd5b600082815260036020908152604091829020805461ffff60a01b1916600160a01b61ffff861690810291909117909155915191825283917f9b620c63a3a08c5cae011f360734188d0175ab03cbcbfa9c2c59b0dcc3683ca791015b60405180910390a25050565b6001546001600160a01b0316331461117957604051632dd63fa360e21b815260040160405180910390fd5b6000828152600460205260409020546001600160a01b03166111ad576040516229eaad60e31b815260040160405180910390fd5b806111cb576040516354b3ff0d60e11b815260040160405180910390fd5b60008281526003602052604090819020805460ff60c01b1916600160c01b1781556001018290555182907fbb404be2226cf65dbd0df7da2d82e9c67ed402cb85e017fc80340e7417f858bd906111429084815260200190565b60008181526004602052604090205481906001600160a01b0316331461125d57604051630d02d9fd60e21b815260040160405180910390fd5b6000828152600460205260409020546001600160a01b0316611291576040516229eaad60e31b815260040160405180910390fd5b600082815260036020526040812090600382015460ff1660028111156112b9576112b961204f565b146112d7576040516318781b5160e01b815260040160405180910390fd5b60038101805460ff19166001179055805460ff60b01b19168155604051339084907fe28168e2a32bbeb4a92c1205010d4189e71a4a2639d1a8269baf3516067aba7e90600090a36040516000815283907ffdd4c03410fe7d22cc6a6313775144fba80c6bfa5990ce09a39fa3d16fdfc9d5906020015b60405180910390a2505050565b60008281526004602052604090205482906001600160a01b0316331461139357604051630d02d9fd60e21b815260040160405180910390fd5b6000838152600460205260409020546001600160a01b03166113c7576040516229eaad60e31b815260040160405180910390fd5b600083815260036020526040908190208054841515600160b01b0260ff60b01b199091161790555183907ffdd4c03410fe7d22cc6a6313775144fba80c6bfa5990ce09a39fa3d16fdfc9d59061134d90851515815260200190565b60008281526004602052604090205482906001600160a01b0316331461145b57604051630d02d9fd60e21b815260040160405180910390fd5b6001600160a01b0382166114825760405163d92e233d60e01b815260040160405180910390fd5b60008381526003602090815260409182902080546001600160a01b0319166001600160a01b038616908117909155915191825284917f84c73bac9828206c5b360ec1e5e0637609d424909ac08389eb2dea05a92de738910161134d565b60008181526004602052604090205481906001600160a01b0316331461151857604051630d02d9fd60e21b815260040160405180910390fd5b6000828152600460205260409020546001600160a01b031661154c576040516229eaad60e31b815260040160405180910390fd5b60008281526003602052604090206001600382015460ff1660028111156115755761157561204f565b14611593576040516318781b5160e01b815260040160405180910390fd5b6002546001600160a01b0316806115bd57604051637d16491b60e11b815260040160405180910390fd5b6040516353e48d8d60e11b8152600481018590526001600160a01b0382169063a7c91b1a90602401602060405180830381865afa158015611602573d6000803e3d6000fd5b505050506040513d601f19601f820116820180604052508101906116269190612603565b15611644576040516330e3988560e01b815260040160405180910390fd5b60038201805460ff19166002179055604051339085907fc660873f5e9f64378c8cbe7547d31411fb22ab4f79e36b1afc526a667072ba5090600090a350505050565b866116a4576040516339d8414360e21b815260040160405180910390fd5b6000878152600460205260409020546001600160a01b0316156116da57604051630eb0d31360e11b815260040160405180910390fd5b600087815260046020908152604080832080546001600160a01b0319163390811790915583526005825282208054600181018255908352912001879055801561197957604080516080810182528281526001600160401b0342811660208084019182526000848601818152606086018281528e8352600684528783206001808552945291879020955186559251949091018054925191511515600160801b0260ff60801b19928516600160401b026001600160801b03199094169590941694909417919091171617905580516101608101909152806001600160a01b038816156117c457876117c6565b335b6001600160a01b03168152602001600061ffff168152602001600115158152602001861515815260200185151581526020016000801b815260200184848080601f01602080910402602001604051908101604052809392919081815260200183838082843760009201829052509385525050602090920191508152602080820184905260016040808401829052606093840182905260008c8152600384528190208551815494870151928701519587015160808801511515600160c01b0260ff60c01b19911515600160b81b0260ff60b81b19981515600160b01b029890981661ffff60b01b1961ffff909616600160a01b026001600160b01b03199098166001600160a01b0390941693909317969096179390931617949094171691909117825560a08301519082015560c08201516002820190611905908261261c565b5060e082015160038201805460ff191660018360028111156119295761192961204f565b02179055506101008201516004820155610120820151600590910180546101409093015163ffffffff908116600160201b0267ffffffffffffffff19909416921691909117919091179055611b4c565b604080516101608101909152806001600160a01b0388161561199b578761199d565b335b6001600160a01b03168152602001600061ffff168152602001600115158152602001861515815260200185151581526020016000801b815260200184848080601f0160208091040260200160405190810160405280939291908181526020018383808284376000920182905250938552505060209092019150815260006020808301829052604080840183905260609384018390528b835260038252918290208451815492860151938601519486015160808701511515600160c01b0260ff60c01b19911515600160b81b0260ff60b81b19971515600160b01b029790971661ffff60b01b1961ffff909716600160a01b026001600160b01b03199096166001600160a01b0390941693909317949094179490941617939093179190911617815560a0820151600182015560c08201516002820190611adc908261261c565b5060e082015160038201805460ff19166001836002811115611b0057611b0061204f565b02179055506101008201516004820155610120820151600590910180546101409093015163ffffffff908116600160201b0267ffffffffffffffff199094169216919091179190911790555b336001600160a01b0316877f8326de45f66576db8724d4b3fca6bd518de1924e3dd3a2a62722d49e2ed341838585604051611b889291906125d4565b60405180910390a350505050505050565b6003602052600090815260409020805460018201546002830180546001600160a01b0384169461ffff600160a01b8604169460ff600160b01b8204811695600160b81b8304821695600160c01b9093049091169390929190611bfa9061240f565b80601f0160208091040260200160405190810160405280929190818152602001828054611c269061240f565b8015611c735780601f10611c4857610100808354040283529160200191611c73565b820191906000526020600020905b815481529060010190602001808311611c5657829003601f168201915b5050505060038301546004840154600590940154929360ff9091169290915063ffffffff80821691600160201b9004168b565b6000546001600160a01b03163314611cd1576040516330cd747160e01b815260040160405180910390fd5b6001600160a01b038116611cf85760405163d92e233d60e01b815260040160405180910390fd5b600080546040516001600160a01b03808516939216917f8be0079c531659141344cd1fd0a4f28419497f9722a3daafe3b4186f6b6457e091a3600080546001600160a01b0319166001600160a01b0392909216919091179055565b6000546001600160a01b03163314611d7e576040516330cd747160e01b815260040160405180910390fd5b6002546040516001600160a01b038084169216907fcb90c5e4cf829f0207f2044d38648c0ceacabf07ad0894545f11afc91439bf2990600090a3600280546001600160a01b0319166001600160a01b0392909216919091179055565b6001600160a01b0382166000908152600560205260408120805490915b81811015611e9e5783838281548110611e1257611e126126da565b906000526020600020015403611e965782611e2e6001846126f0565b81548110611e3e57611e3e6126da565b9060005260206000200154838281548110611e5b57611e5b6126da565b906000526020600020018190555082805480611e7957611e79612703565b600190038181906000526020600020016000905590555050505050565b600101611df7565b506040516229eaad60e31b815260040160405180910390fd5b508054611ec39061240f565b6000825580601f10611ed3575050565b601f016020900490600052602060002090810190611ef19190611ef4565b50565b5b80821115611f095760008155600101611ef5565b5090565b60008060408385031215611f2057600080fd5b82359150602083013560028110611f3657600080fd5b809150509250929050565b600060208284031215611f5357600080fd5b5035919050565b80356001600160a01b0381168114611f7157600080fd5b919050565b600060208284031215611f8857600080fd5b611f9182611f5a565b9392505050565b60008060408385031215611fab57600080fd5b82359150602083013563ffffffff81168114611f3657600080fd5b602080825282518282018190526000918401906040840190835b81811015611ffe578351835260209384019390920191600101611fe0565b509095945050505050565b6000815180845260005b8181101561202f57602081850181015186830182015201612013565b506000602082860101526020601f19601f83011685010191505092915050565b634e487b7160e01b600052602160045260246000fd5b6003811061208357634e487b7160e01b600052602160045260246000fd5b9052565b602081526120a16020820183516001600160a01b03169052565b600060208301516120b8604084018261ffff169052565b5060408301518015156060840152506060830151801515608084015250608083015180151560a08401525060a083015160c083015260c083015161016060e0840152612108610180840182612009565b905060e084015161211d610100850182612065565b5061010084015161012084015261012084015161214361014085018263ffffffff169052565b5061014084015163ffffffff8116610160850152509392505050565b60008060006060848603121561217457600080fd5b833592506020840135915060408401356001600160401b038116811461219957600080fd5b809150509250925092565b602081526000611f916020830184612009565b60008083601f8401126121c957600080fd5b5081356001600160401b038111156121e057600080fd5b6020830191508360208285010111156121f857600080fd5b9250929050565b60008060006040848603121561221457600080fd5b8335925060208401356001600160401b0381111561223157600080fd5b61223d868287016121b7565b9497909650939450505050565b6000806040838503121561225d57600080fd5b82359150602083013561ffff81168114611f3657600080fd5b6000806040838503121561228957600080fd5b50508035926020909101359150565b80358015158114611f7157600080fd5b600080604083850312156122bb57600080fd5b823591506122cb60208401612298565b90509250929050565b600080604083850312156122e757600080fd5b823591506122cb60208401611f5a565b600080600080600080600060c0888a03121561231257600080fd5b8735965061232260208901611f5a565b955061233060408901612298565b945061233e60608901612298565b935060808801356001600160401b0381111561235957600080fd5b6123658a828b016121b7565b989b979a5095989497959660a090950135949350505050565b60018060a01b038c16815261ffff8b1660208201528915156040820152881515606082015287151560808201528660a082015261016060c082015260006123c9610160830188612009565b90506123d860e0830187612065565b846101008301526123f261012083018563ffffffff169052565b63ffffffff83166101408301529c9b505050505050505050505050565b600181811c9082168061242357607f821691505b60208210810361244357634e487b7160e01b600052602260045260246000fd5b50919050565b634e487b7160e01b600052601160045260246000fd5b600063ffffffff821663ffffffff810361247b5761247b612449565b60010192915050565b63ffffffff818116838216019081111561061857610618612449565b8082018082111561061857610618612449565b634e487b7160e01b600052604160045260246000fd5b601f82111561251057806000526020600020601f840160051c810160208510156124f05750805b601f840160051c820191505b81811015610f1c57600081556001016124fc565b505050565b6001600160401b0383111561252c5761252c6124b3565b6125408361253a835461240f565b836124c9565b6000601f841160018114612574576000851561255c5750838201355b600019600387901b1c1916600186901b178355610f1c565b600083815260209020601f19861690835b828110156125a55786850135825560209485019460019092019101612585565b50868210156125c25760001960f88860031b161c19848701351681555b505060018560011b0183555050505050565b60208152816020820152818360408301376000818301604090810191909152601f909201601f19160101919050565b60006020828403121561261557600080fd5b5051919050565b81516001600160401b03811115612635576126356124b3565b61264981612643845461240f565b846124c9565b6020601f82116001811461267d57600083156126655750848201515b600019600385901b1c1916600184901b178455610f1c565b600084815260208120601f198516915b828110156126ad578785015182556020948501946001909201910161268d565b50848210156126cb5786840151600019600387901b60f8161c191681555b50505050600190811b01905550565b634e487b7160e01b600052603260045260246000fd5b8181038181111561061857610618612449565b634e487b7160e01b600052603160045260246000fdfea26469706673582212205397943b7ee85716ae756cfc6a1186cfe6dd0334139ca882a3bb031012ba94e964736f6c634300081c0033","linkReferences":{}},"methodIdentifiers":{"attestationService()":"2cd04700","chillNode(bytes32)":"7ed5f256","encryptionKeys(bytes32,uint32)":"2d4a3606","getMetadataURI(bytes32)":"6640ac2a","getProvider(bytes32)":"33c0950a","markDefunct(bytes32)":"bd13381b","nodeOperator(bytes32)":"360c4107","nodes(bytes32)":"d86e697d","operatorNodes(address)":"2f013de6","owner()":"8da5cb5b","purgeDefunctNode(bytes32)":"06778eac","registerNode(bytes32,address,bool,bool,string,bytes32)":"ce28ca3e","revokeEncryptionKey(bytes32,uint32)":"637f267e","rotateEncryptionKey(bytes32,bytes32,uint64)":"5074961a","setAttestationService(address)":"113bb87e","setNodeActive(bytes32,bool)":"8cd2b4db","setNodeFee(bytes32,uint16)":"72ef2418","setNodeMetadata(bytes32,string)":"6d8857ae","setNodePayout(bytes32,address)":"a558b183","setSettlementEscrow(address)":"f36551f8","setTEEProof(bytes32,bytes32)":"76a67a9c","settlementEscrow()":"88328b75","supportsTier(bytes32,uint8)":"030e30ae","transferOwnership(address)":"f2fde38b"},"id":25}