{"abi":[{"type":"constructor","inputs":[{"name":"registry_","type":"address","internalType":"contract IProviderRegistry"},{"name":"priceOracle_","type":"address","internalType":"contract IPriceOracle"},{"name":"modelPriceOracle_","type":"address","internalType":"contract IModelPriceOracle"},{"name":"usdc_","type":"address","internalType":"contract IERC20"},{"name":"nativeDotDecimals_","type":"uint8","internalType":"uint8"}],"stateMutability":"nonpayable"},{"type":"receive","stateMutability":"payable"},{"type":"function","name":"depositDot","inputs":[],"outputs":[],"stateMutability":"payable"},{"type":"function","name":"depositUsdcAsDot","inputs":[{"name":"usdcAmount","type":"uint256","internalType":"uint256"}],"outputs":[],"stateMutability":"nonpayable"},{"type":"function","name":"depositUsdcAsDot","inputs":[{"name":"usdcAmount","type":"uint256","internalType":"uint256"},{"name":"minDotInternalOut","type":"uint256","internalType":"uint256"},{"name":"maxOracleAgeSecs","type":"uint256","internalType":"uint256"}],"outputs":[],"stateMutability":"nonpayable"},{"type":"function","name":"dotBalances","inputs":[{"name":"","type":"address","internalType":"address"}],"outputs":[{"name":"","type":"uint256","internalType":"uint256"}],"stateMutability":"view"},{"type":"function","name":"getDotBalances","inputs":[{"name":"user","type":"address","internalType":"address"}],"outputs":[{"name":"","type":"uint256","internalType":"uint256"}],"stateMutability":"view"},{"type":"function","name":"internalCirculating","inputs":[],"outputs":[{"name":"","type":"uint256","internalType":"uint256"}],"stateMutability":"view"},{"type":"function","name":"modelPriceOracle","inputs":[],"outputs":[{"name":"","type":"address","internalType":"contract IModelPriceOracle"}],"stateMutability":"view"},{"type":"function","name":"nativeDotDecimals","inputs":[],"outputs":[{"name":"","type":"uint8","internalType":"uint8"}],"stateMutability":"view"},{"type":"function","name":"nextSessionId","inputs":[],"outputs":[{"name":"","type":"uint256","internalType":"uint256"}],"stateMutability":"view"},{"type":"function","name":"openSession","inputs":[{"name":"nodeId","type":"bytes32","internalType":"bytes32"},{"name":"tier","type":"uint8","internalType":"enum SecurityTier"},{"name":"modelId","type":"bytes32","internalType":"bytes32"},{"name":"amountInternal","type":"uint256","internalType":"uint256"},{"name":"name","type":"string","internalType":"string"}],"outputs":[],"stateMutability":"payable"},{"type":"function","name":"openSessionCountByNode","inputs":[{"name":"nodeId","type":"bytes32","internalType":"bytes32"}],"outputs":[{"name":"","type":"uint256","internalType":"uint256"}],"stateMutability":"view"},{"type":"function","name":"priceOracle","inputs":[],"outputs":[{"name":"","type":"address","internalType":"contract IPriceOracle"}],"stateMutability":"view"},{"type":"function","name":"protocolBalances","inputs":[],"outputs":[{"name":"","type":"uint256","internalType":"uint256"}],"stateMutability":"view"},{"type":"function","name":"protocolFeeBps","inputs":[],"outputs":[{"name":"","type":"uint256","internalType":"uint256"}],"stateMutability":"view"},{"type":"function","name":"protocolTreasury","inputs":[],"outputs":[{"name":"","type":"address","internalType":"address"}],"stateMutability":"view"},{"type":"function","name":"providerBalances","inputs":[{"name":"","type":"bytes32","internalType":"bytes32"}],"outputs":[{"name":"","type":"uint256","internalType":"uint256"}],"stateMutability":"view"},{"type":"function","name":"recordUsage","inputs":[{"name":"sessionId","type":"uint256","internalType":"uint256"},{"name":"inputTokensDelta","type":"uint256","internalType":"uint256"},{"name":"outputTokensDelta","type":"uint256","internalType":"uint256"}],"outputs":[],"stateMutability":"nonpayable"},{"type":"function","name":"recordUsageRole","inputs":[],"outputs":[{"name":"","type":"address","internalType":"address"}],"stateMutability":"view"},{"type":"function","name":"registry","inputs":[],"outputs":[{"name":"","type":"address","internalType":"contract IProviderRegistry"}],"stateMutability":"view"},{"type":"function","name":"sessions","inputs":[{"name":"","type":"uint256","internalType":"uint256"}],"outputs":[{"name":"user","type":"address","internalType":"address"},{"name":"nodeId","type":"bytes32","internalType":"bytes32"},{"name":"modelId","type":"bytes32","internalType":"bytes32"},{"name":"tier","type":"uint8","internalType":"enum SecurityTier"},{"name":"lockedInternal","type":"uint256","internalType":"uint256"},{"name":"usageRecorded","type":"uint256","internalType":"uint256"},{"name":"paidToProviderInternal","type":"uint256","internalType":"uint256"},{"name":"paidToProtocolInternal","type":"uint256","internalType":"uint256"},{"name":"openingInternal","type":"uint256","internalType":"uint256"},{"name":"openedAt","type":"uint64","internalType":"uint64"},{"name":"settled","type":"bool","internalType":"bool"},{"name":"inputTokensRecorded","type":"uint64","internalType":"uint64"},{"name":"outputTokensRecorded","type":"uint64","internalType":"uint64"},{"name":"name","type":"string","internalType":"string"}],"stateMutability":"view"},{"type":"function","name":"setProtocolFeeBps","inputs":[{"name":"bps","type":"uint256","internalType":"uint256"}],"outputs":[],"stateMutability":"nonpayable"},{"type":"function","name":"setProtocolTreasury","inputs":[{"name":"next","type":"address","internalType":"address"}],"outputs":[],"stateMutability":"nonpayable"},{"type":"function","name":"setRecordUsage","inputs":[{"name":"next","type":"address","internalType":"address"}],"outputs":[],"stateMutability":"nonpayable"},{"type":"function","name":"setSettlementOperator","inputs":[{"name":"next","type":"address","internalType":"address"}],"outputs":[],"stateMutability":"nonpayable"},{"type":"function","name":"setTeePriceMultiplierBps","inputs":[{"name":"bps","type":"uint256","internalType":"uint256"}],"outputs":[],"stateMutability":"nonpayable"},{"type":"function","name":"settleByOperatorFull","inputs":[{"name":"sessionId","type":"uint256","internalType":"uint256"},{"name":"toProvider","type":"uint256","internalType":"uint256"},{"name":"toUser","type":"uint256","internalType":"uint256"}],"outputs":[],"stateMutability":"nonpayable"},{"type":"function","name":"settleByOperatorPartial","inputs":[{"name":"sessionId","type":"uint256","internalType":"uint256"},{"name":"toProvider","type":"uint256","internalType":"uint256"},{"name":"toUser","type":"uint256","internalType":"uint256"}],"outputs":[],"stateMutability":"nonpayable"},{"type":"function","name":"settleFull","inputs":[{"name":"sessionId","type":"uint256","internalType":"uint256"},{"name":"toProvider","type":"uint256","internalType":"uint256"},{"name":"toUser","type":"uint256","internalType":"uint256"}],"outputs":[],"stateMutability":"nonpayable"},{"type":"function","name":"settlePartial","inputs":[{"name":"sessionId","type":"uint256","internalType":"uint256"},{"name":"toProvider","type":"uint256","internalType":"uint256"},{"name":"toUser","type":"uint256","internalType":"uint256"}],"outputs":[],"stateMutability":"nonpayable"},{"type":"function","name":"settlementOperator","inputs":[],"outputs":[{"name":"","type":"address","internalType":"address"}],"stateMutability":"view"},{"type":"function","name":"teePriceMultiplierBps","inputs":[],"outputs":[{"name":"","type":"uint256","internalType":"uint256"}],"stateMutability":"view"},{"type":"function","name":"totalLockedInternal","inputs":[],"outputs":[{"name":"","type":"uint256","internalType":"uint256"}],"stateMutability":"view"},{"type":"function","name":"usdc","inputs":[],"outputs":[{"name":"","type":"address","internalType":"contract IERC20"}],"stateMutability":"view"},{"type":"function","name":"withdrawDot","inputs":[{"name":"amountInternal","type":"uint256","internalType":"uint256"}],"outputs":[],"stateMutability":"nonpayable"},{"type":"function","name":"withdrawProtocolDot","inputs":[{"name":"amountInternal","type":"uint256","internalType":"uint256"}],"outputs":[],"stateMutability":"nonpayable"},{"type":"function","name":"withdrawProviderDot","inputs":[{"name":"nodeId","type":"bytes32","internalType":"bytes32"},{"name":"amountInternal","type":"uint256","internalType":"uint256"}],"outputs":[],"stateMutability":"nonpayable"},{"type":"event","name":"DotDeposited","inputs":[{"name":"user","type":"address","indexed":true,"internalType":"address"},{"name":"amountNative","type":"uint256","indexed":false,"internalType":"uint256"},{"name":"creditedInternal","type":"uint256","indexed":false,"internalType":"uint256"}],"anonymous":false},{"type":"event","name":"DotWithdrawn","inputs":[{"name":"user","type":"address","indexed":true,"internalType":"address"},{"name":"burnedInternal","type":"uint256","indexed":false,"internalType":"uint256"},{"name":"paidNative","type":"uint256","indexed":false,"internalType":"uint256"}],"anonymous":false},{"type":"event","name":"ProtocolDotWithdrawn","inputs":[{"name":"treasury","type":"address","indexed":true,"internalType":"address"},{"name":"burnedInternal","type":"uint256","indexed":false,"internalType":"uint256"},{"name":"paidNative","type":"uint256","indexed":false,"internalType":"uint256"}],"anonymous":false},{"type":"event","name":"ProtocolFeeAccrued","inputs":[{"name":"sessionId","type":"uint256","indexed":true,"internalType":"uint256"},{"name":"grossToProvider","type":"uint256","indexed":false,"internalType":"uint256"},{"name":"protocolFee","type":"uint256","indexed":false,"internalType":"uint256"},{"name":"providerNet","type":"uint256","indexed":false,"internalType":"uint256"}],"anonymous":false},{"type":"event","name":"ProtocolFeeBpsUpdated","inputs":[{"name":"previousBps","type":"uint256","indexed":false,"internalType":"uint256"},{"name":"nextBps","type":"uint256","indexed":false,"internalType":"uint256"}],"anonymous":false},{"type":"event","name":"ProtocolTreasuryUpdated","inputs":[{"name":"previous","type":"address","indexed":true,"internalType":"address"},{"name":"next","type":"address","indexed":true,"internalType":"address"}],"anonymous":false},{"type":"event","name":"ProviderDotWithdrawn","inputs":[{"name":"provider","type":"address","indexed":true,"internalType":"address"},{"name":"burnedInternal","type":"uint256","indexed":false,"internalType":"uint256"},{"name":"paidNative","type":"uint256","indexed":false,"internalType":"uint256"}],"anonymous":false},{"type":"event","name":"RecordUsageUpdated","inputs":[{"name":"previous","type":"address","indexed":true,"internalType":"address"},{"name":"next","type":"address","indexed":true,"internalType":"address"}],"anonymous":false},{"type":"event","name":"SessionFundsReleased","inputs":[{"name":"sessionId","type":"uint256","indexed":true,"internalType":"uint256"},{"name":"toProvider","type":"uint256","indexed":false,"internalType":"uint256"},{"name":"toUser","type":"uint256","indexed":false,"internalType":"uint256"},{"name":"remainingLockedInternal","type":"uint256","indexed":false,"internalType":"uint256"}],"anonymous":false},{"type":"event","name":"SessionOpened","inputs":[{"name":"sessionId","type":"uint256","indexed":true,"internalType":"uint256"},{"name":"user","type":"address","indexed":true,"internalType":"address"},{"name":"nodeId","type":"bytes32","indexed":true,"internalType":"bytes32"},{"name":"tier","type":"uint8","indexed":false,"internalType":"enum SecurityTier"},{"name":"modelId","type":"bytes32","indexed":false,"internalType":"bytes32"},{"name":"lockedInternal","type":"uint256","indexed":false,"internalType":"uint256"},{"name":"name","type":"string","indexed":false,"internalType":"string"}],"anonymous":false},{"type":"event","name":"SettlementOperatorUpdated","inputs":[{"name":"previous","type":"address","indexed":true,"internalType":"address"},{"name":"next","type":"address","indexed":true,"internalType":"address"}],"anonymous":false},{"type":"event","name":"TeePriceMultiplierUpdated","inputs":[{"name":"previousBps","type":"uint256","indexed":false,"internalType":"uint256"},{"name":"nextBps","type":"uint256","indexed":false,"internalType":"uint256"}],"anonymous":false},{"type":"event","name":"UsageRecorded","inputs":[{"name":"sessionId","type":"uint256","indexed":true,"internalType":"uint256"},{"name":"inputTokensDelta","type":"uint256","indexed":false,"internalType":"uint256"},{"name":"outputTokensDelta","type":"uint256","indexed":false,"internalType":"uint256"},{"name":"usageTotalInternal","type":"uint256","indexed":false,"internalType":"uint256"}],"anonymous":false},{"type":"event","name":"UsdcDepositedAsDot","inputs":[{"name":"user","type":"address","indexed":true,"internalType":"address"},{"name":"usdcAmount","type":"uint256","indexed":false,"internalType":"uint256"},{"name":"creditedInternal","type":"uint256","indexed":false,"internalType":"uint256"}],"anonymous":false},{"type":"error","name":"AlreadySettled","inputs":[]},{"type":"error","name":"BadAmount","inputs":[]},{"type":"error","name":"BadNativeDecimals","inputs":[]},{"type":"error","name":"BadProtocolFeeBps","inputs":[]},{"type":"error","name":"BadSessionName","inputs":[]},{"type":"error","name":"BadSettleSplit","inputs":[]},{"type":"error","name":"BadTeeMultiplier","inputs":[]},{"type":"error","name":"BadTokenDelta","inputs":[]},{"type":"error","name":"InsufficientBalance","inputs":[]},{"type":"error","name":"NotProtocolTreasury","inputs":[]},{"type":"error","name":"NotRecordUsage","inputs":[]},{"type":"error","name":"NotRegistryOwner","inputs":[]},{"type":"error","name":"NotSessionProvider","inputs":[]},{"type":"error","name":"NotSessionUser","inputs":[]},{"type":"error","name":"NotSettlementOperator","inputs":[]},{"type":"error","name":"OpenSessionCounterUnderflow","inputs":[]},{"type":"error","name":"OracleStale","inputs":[]},{"type":"error","name":"Slippage","inputs":[]},{"type":"error","name":"TransferFailed","inputs":[]},{"type":"error","name":"UnknownSession","inputs":[]},{"type":"error","name":"UnsupportedTier","inputs":[]}],"bytecode":{"object":"0x6101203461019d57601f6127d738819003918201601f19168301916001600160401b038311848410176101a25780849260a09460405283398101031261019d5780516001600160a01b038116810361019d576020820151916001600160a01b038316830361019d5760408101516001600160a01b038116810361019d576060820151916001600160a01b038316830361019d57608001519360ff85169384860361019d57613a98600055606460045560805260a05260c05260e0528015908115610192575b50610181576101005260405161261e90816101b982396080518181816105e0015281816106fe015281816107ef01528181610bfc015281816111c5015281816113b30152818161177501528181611b5501526121d8015260a0518181816101e50152818161040401528181611aea0152611fa4015260c05181818161096101528181610f95015261140d015260e051818181610289015281816118e1015261203b015261010051818181610c450152818161247301526125570152f35b63a709fe1360e01b60005260046000fd5b6012915011386100c4565b600080fd5b634e487b7160e01b600052604160045260246000fdfe608080604052600436101561001d575b50361561001b57600080fd5b005b600090813560e01c9081630164b11f14612282575080630c5a61f81461219c5780630cfee3fe1461217f5780630fc0a82d14611f73578063100ee50f14611ebb578063199b3e2914611c285780631b6984e814611bff5780631cf764a514611b195780632630c12f14611ad457806332e5cd9b1461192e57806335659fb8146119105780633e413bee146118cb57806343078f731461181f578063448758d51461173957806349bbf7da1461171b5780634e50829d146113175780636b6df5da146112f95780636cddf290146112725780636d2079bf146112485780636f4ea56a14610f0f578063750e957e14610c6957806377fb401a14610c2b578063787da52d14610b7c5780637b10399914610be6578063803db96d14610bbd57806380d698dc14610b7c57806383c4b7a3146109905780639bfad3cd1461094b578063a5c5ad111461092d578063a7c91b1a14610903578063b72c2850146107b5578063c0417e58146106d1578063cf9071be146105b3578063d1dbb211146104df578063e0544f16146104b65763f35dc75e0361000f57346104b3576101c03661229e565b821561039457600181016103ee575b506040516360e410dd60e11b81526020816004817f00000000000000000000000000000000000000000000000000000000000000006001600160a01b03165afa9081156103705784916103b7575b50801561039457670de0b6b3a76400008302838104670de0b6b3a7640000036103a3579061024a9161241c565b90811561039457801515908161038a575b5061037b576040516323b872dd60e01b815233600482015230602482015260448101839052602081606481877f00000000000000000000000000000000000000000000000000000000000000006001600160a01b03165af1908115610370578491610332575b5015610323573383526006602052604083206102de8282546123fc565b90556102ec816009546123fc565b60095560405191825260208201527fe77a4a84a4bca54aad23cbaaa6da4f6dcd851f121afff411553791a3aacf06fc60403392a280f35b6312171d8360e31b8352600483fd5b90506020813d602011610368575b8161034d602093836122f2565b810103126103645761035e906123cd565b386102c1565b8380fd5b3d9150610340565b6040513d86823e3d90fd5b6307dd37f760e41b8352600483fd5b905081103861025b565b63749b593960e01b8452600484fd5b634e487b7160e01b85526011600452602485fd5b90506020813d6020116103e6575b816103d2602093836122f2565b810103126103e157513861021d565b600080fd5b3d91506103c5565b604051632c4713bb60e21b8152906020826004817f00000000000000000000000000000000000000000000000000000000000000006001600160a01b03165afa9182156104a8578592610474575b508115918215610461575b505061045357386101cf565b628af0d360e31b8352600483fd5b61046b92506123fc565b42113880610447565b9091506020813d6020116104a0575b81610490602093836122f2565b810103126103e15751903861043c565b3d9150610483565b6040513d87823e3d90fd5b80fd5b50346104b357806003193601126104b3576002546040516001600160a01b039091168152602090f35b50346104b35760203660031901126104b357600354600435906001600160a01b031633036105a45780156105955760055481811061058657816105219161236b565b6005556105308160095461236b565b60095561053c81612471565b8280808084335af161054c61238e565b50156103235760405191825260208201527f8809bf018cc0507ffe045c895d42eee51374cfb66bbe6f9b93bd202c3f860bf460403392a280f35b631e9acf1760e31b8352600483fd5b63749b593960e01b8252600482fd5b63bb3e0ca760e01b8252600482fd5b50346104b35760203660031901126104b357604051638da5cb5b60e01b81526004803591906020908290817f00000000000000000000000000000000000000000000000000000000000000006001600160a01b03165afa9081156106c6578391610697575b506001600160a01b03163303610688576127108110801561067d575b61066e577f4dbe4d1de3a71ba292ddd854d6228c5515ae4fe72137fc52b7dd4502902bf6aa604083548151908152836020820152a1815580f35b63635d45df60e01b8252600482fd5b506175308111610634565b63778d468d60e11b8252600482fd5b6106b9915060203d6020116106bf575b6106b181836122f2565b81019061234c565b38610618565b503d6106a7565b6040513d85823e3d90fd5b50346104b35760203660031901126104b357604051638da5cb5b60e01b81526004803591906020908290817f00000000000000000000000000000000000000000000000000000000000000006001600160a01b03165afa9081156106c6578391610796575b506001600160a01b03163303610688576103e88111610787577ff247e7445763d3e9a01aee4b64de35f02273d6a1d7264694bb9298109319c8be60406004548151908152836020820152a160045580f35b63f7a8511f60e01b8252600482fd5b6107af915060203d6020116106bf576106b181836122f2565b38610736565b50346104b35760403660031901126104b35760243560043581156108f45760405163360c410760e01b8152600481018290526020816024817f00000000000000000000000000000000000000000000000000000000000000006001600160a01b03165afa9081156103705784916108d5575b50336001600160a01b03909116036108c65780835260076020528160408420541061058657825260076020526040822061086282825461236b565b90556108708160095461236b565b60095561087c81612471565b8280808084335af161088c61238e565b50156103235760405191825260208201527fb8f77dcb46609e9bb8c47ec6f49344b40aa275b4ad99d0a7f6ddf81a498497b660403392a280f35b63f7e3c90d60e01b8352600483fd5b6108ee915060203d6020116106bf576106b181836122f2565b38610827565b63749b593960e01b8352600483fd5b50346104b35760203660031901126104b35760406020916004358152600b83522054604051908152f35b50346104b357806003193601126104b3576020600554604051908152f35b50346104b357806003193601126104b3576040517f00000000000000000000000000000000000000000000000000000000000000006001600160a01b03168152602090f35b50346104b35760203660031901126104b3576004358152600c6020526040812060018060a01b038154169160018201549060028301549260ff6003820154169360048201546005830154600684015490600785015492600886015494600a6009880154970198604051998a8a918054610a08816122b8565b809352600181169081600014610b3b57509d9e9d600114610aff575b50509b6001600160401b0398979695949392610a4b8c610a67949f9d9e9d819003906122f2565b6040519d8e9c8d5260208d015260408c015260608b0190612329565b608089015260a088015260c087015260e086015261010085015281811661012085015260ff8160401c161515610140850152818160481c1661016085015260881c166101808301526101c06101a0830152825192836101c0840152815b848110610ae6575050916101e092838284010152601f80199101168101030190f35b60208282018101516101e0888401015286945001610ac4565b8b5260208b208b92505b818310610b205750508a0160200181610a4b610a24565b6001818e602086819597969754920101520191019190610b09565b8e9f95936001600160401b039e9f9250610a67979550610a4b9350602090839260ff191682840152151560051b820101949650505081939e9d9c9b50610a24565b50346104b35760203660031901126104b3576004356001600160a01b03811690819003610bb9578160409160209352600683522054604051908152f35b5080fd5b50346104b357806003193601126104b3576003546040516001600160a01b039091168152602090f35b50346104b357806003193601126104b3576040517f00000000000000000000000000000000000000000000000000000000000000006001600160a01b03168152602090f35b50346104b357806003193601126104b357602060405160ff7f0000000000000000000000000000000000000000000000000000000000000000168152f35b50346104b357610c783661229e565b828452600c6020526040842080549192916001600160a01b0316908115610f0057600981019160ff835460401c16610ef2573303610ee357610cba84846123fc565b9182158015610ed6575b610ec75760068201610cd78582546123fc565b9060058401548211610eb8578515158080610ead575b80610e99575b15610e725750877f9425b75e1d9c9d6e70dacf73e23fb870f8e348a0919ee1be28a87c2c3d66058d612710610d2a6004548a612409565b04610d35818a61236b565b9060018801548d52600760205260408d20610d518382546123fc565b9055610d5f816005546123fc565b60055560078801610d718282546123fc565b9055604080518b81526020810192909252810191909152606090a25b55610dab6004830193610da181865461236b565b855560085461236b565b60085581546001600160a01b031687526006602052604087208054610dd19087906123fc565b9055825415610e10575b505054604080519283526020830193909352918101919091526000805160206125c98339815191529080606081015b0390a280f35b805460ff60401b1916600160401b17905560010154808652600b6020526040862054908115610e63578652600b602052604086206000199091019055610e0a6000805160206125c9833981519152610ddb565b632637b87b60e11b8752600487fd5b15610d8d5760018401548952600760205260408920610e928782546123fc565b9055610d8d565b506003546001600160a01b03161515610cf3565b506004541515610ced565b632b9003a960e11b8952600489fd5b632b9003a960e11b8752600487fd5b5060048201548311610cc4565b6395bd9db960e01b8652600486fd5b62560ff960e81b8752600487fd5b6327e53c9b60e11b8652600486fd5b50346104b357610f1e3661229e565b828452600c6020526040842080549192916001600160a01b031615611239576002546001600160a01b0316331415806111a2575b6111935760098101805460ff8160401c16610ef25783158061118b575b61117c576002830154604051635ec5381560e01b815260048101919091526060816024817f00000000000000000000000000000000000000000000000000000000000000006001600160a01b03165afa801561117157610ff39189908a9261112f575b50610fec6103e8610fe481938a612409565b049289612409565b04906123fc565b9260ff600382015416600281101561111b5791610e0a939160017feaab2658e61a52ed505263c32acae2e61ea8d6b6e9b5824475d27cf4279e134a98979694146110fc575b600561104791019384546123fc565b80935570ffffffffffffffff00000000000000000061107b6001600160401b0387166001600160401b038460481c166125a8565b60481b1667ffffffffffffffff60881b6110ba6001600160401b038981169070ffffffffffffffff000000000000000000198616851760881c166125a8565b60881b169178ffffffffffffffffffffffffffffffff000000000000000000191617179055604051938493846040919493926060820195825260208201520152565b926005612710611111611047938d5490612409565b0494915050611038565b634e487b7160e01b89526021600452602489fd5b610fe492506103e880925061115e610fec9260603d60601161116a575b61115681836122f2565b8101906123da565b50949093505050610fd2565b503d61114c565b6040513d8a823e3d90fd5b63f994ee0f60e01b8752600487fd5b508415610f6f565b637bfd184560e01b8552600485fd5b50600181015460405163360c410760e01b815260048101919091526020816024817f00000000000000000000000000000000000000000000000000000000000000006001600160a01b03165afa90811561122e57869161120f575b506001600160a01b0316331415610f52565b611228915060203d6020116106bf576106b181836122f2565b386111fd565b6040513d88823e3d90fd5b6327e53c9b60e11b8552600485fd5b50346104b35760203660031901126104b35760406020916004358152600783522054604051908152f35b50806003193601126104b35734156112ea5761128d34612555565b3382526006602052604082206112a48282546123fc565b90556112b2816009546123fc565b6009556040519034825260208201527f5b3d638b33196811661faabd4f98d7b79505dd3644c0320ac4cb4efa072d315960403392a280f35b63749b593960e01b8152600490fd5b50346104b357806003193601126104b3576020600954604051908152f35b5060a03660031901126104b357600435602435600281101561171757604435606435916084356001600160401b0381116117135736602382011215611713578060040135936001600160401b03851161170f57366024868401011161170f57801561170057831561170057608085116116f157604051630187185760e11b8152600481018790526113ab6024820185612329565b6020816044817f00000000000000000000000000000000000000000000000000000000000000006001600160a01b03165afa9081156111715788916116b3575b50156116a457604051635ec5381560e01b8152600481018590526060816024817f00000000000000000000000000000000000000000000000000000000000000006001600160a01b03165afa801561117157611685575b50600a549360001985146116715760018501600a55848852600c602052600a60408920336bffffffffffffffffffffffff60a01b8254161781558860018201558260028201556003810160ff1981541660ff8816179055836004820155836008820155600981016001600160401b0342166001600160401b0319825416179055016114cd81546122b8565b601f811161162c575b508689601f82116001146115c3578a916115b5575b508760011b906000198960031b1c19161790555b61150b826008546123fc565b600855868852600b60205260408820805490600182018092116115a157557f8307782a3ec738adc13eab456043fcbab68feeea7453bdab05c23e409f3df6129392869260249261155a826124db565b6115676040518097612329565b60208601526040850152608060608501528260808501520160a08301378560a0858301015260a0813395601f80199101168101030190a480f35b634e487b7160e01b8a52601160045260248afd5b6024915085010135386114eb565b828b5260208b20915088601f1981168c5b81811061160e5750106115f1575b5050600187811b0190556114ff565b85016024013560001960038a901b60f8161c1916905538806115e2565b8884016024013585556001909401936020938401938c9350016115d4565b818a5260208a20601f890160051c81019160208a10611667575b601f0160051c01905b81811061165c57506114d6565b8a815560010161164f565b9091508190611646565b634e487b7160e01b88526011600452602488fd5b61169d9060603d60601161116a5761115681836122f2565b5050611442565b63b67d64bb60e01b8752600487fd5b90506020813d6020116116e9575b816116ce602093836122f2565b810103126116e5576116df906123cd565b386113eb565b8780fd5b3d91506116c1565b630597495b60e21b8752600487fd5b63749b593960e01b8752600487fd5b8680fd5b8580fd5b8280fd5b50346104b357806003193601126104b3576020600a54604051908152f35b50346104b35760203660031901126104b3576004356001600160a01b03811690819003610bb957604051638da5cb5b60e01b81526020816004817f00000000000000000000000000000000000000000000000000000000000000006001600160a01b03165afa9081156106c6578391611800575b506001600160a01b0316330361068857600154816001600160a01b0382167f1fd86ee97516e805df1aa58110ecb8ff02b3e66f573e25bf47e2c45bd2537c4f8580a36001600160a01b0319161760015580f35b611819915060203d6020116106bf576106b181836122f2565b386117ad565b50346104b35761182e3661229e565b6001549091906001600160a01b031633036118bc57828452600c6020526040842080546001600160a01b03161561123957600981019460ff865460401c166118ae578061189f575061188083836123fc565b9060009582158015610ed657610ec75760068201610cd78582546123fc565b6395bd9db960e01b8152600490fd5b62560ff960e81b8152600490fd5b630b5ccdb760e01b8452600484fd5b50346104b357806003193601126104b3576040517f00000000000000000000000000000000000000000000000000000000000000006001600160a01b03168152602090f35b50346104b357806003193601126104b3576020600454604051908152f35b50346104b35761193d3661229e565b828452600c6020526040842080549192916001600160a01b0316908115610f0057600981019160ff835460401c16610ef2573303610ee35761197f84846123fc565b91600482019283548103611ac5576006830161199c8682546123fc565b9060058501548211611ab657610dab9291908715158080611aab575b80611a97575b15611a705750897f9425b75e1d9c9d6e70dacf73e23fb870f8e348a0919ee1be28a87c2c3d66058d8c8a611a608a60406127106119fd60045486612409565b04946001611a0b878761236b565b9301548152600760205220611a218282546123fc565b9055611a2f846005546123fc565b60055560078c01611a418582546123fc565b9055604051938493846040919493926060820195825260208201520152565b0390a25b55610da181865461236b565b15611a645760018601548b52600760205260408b20611a908982546123fc565b9055611a64565b506003546001600160a01b031615156119be565b5060045415156119b8565b632b9003a960e11b8a5260048afd5b632b9003a960e11b8852600488fd5b50346104b357806003193601126104b3576040517f00000000000000000000000000000000000000000000000000000000000000006001600160a01b03168152602090f35b50346104b35760203660031901126104b3576004356001600160a01b03811690819003610bb957604051638da5cb5b60e01b81526020816004817f00000000000000000000000000000000000000000000000000000000000000006001600160a01b03165afa9081156106c6578391611be0575b506001600160a01b0316330361068857600254816001600160a01b0382167f6a9907b04b0d769e790f3c2db4e46b1f2ed3d816277906077bebf5ce537d6fef8580a36001600160a01b0319161760025580f35b611bf9915060203d6020116106bf576106b181836122f2565b38611b8d565b50346104b357806003193601126104b3576001546040516001600160a01b039091168152602090f35b50346104b357611c373661229e565b6001549293929091906001600160a01b03163303611eac57838352600c6020526040832080546001600160a01b031615611e9d57600981019360ff855460401c166118ae578061189f5750611c8c83836123fc565b93600482019485548103611e8c576006830190611caa8583546123fc565b60058501548111611e8c57611d7b928615158080611e81575b80611e6d575b15611e445750897f9425b75e1d9c9d6e70dacf73e23fb870f8e348a0919ee1be28a87c2c3d66058d612710611d006004548b612409565b04611d0b818b61236b565b9060018a015460005260076020526040600020611d298382546123fc565b9055611d37816005546123fc565b60055560078a01611d498282546123fc565b9055604080518c81526020810192909252810191909152606090a25b55611d7181885461236b565b875560085461236b565b60085560018060a01b0382541660005260066020526040600020611da08582546123fc565b9055845415611ddc575b50509154604080519384526020840192909252908201526000805160206125c98339815191529080606081015b0390a2005b805460ff60401b1916600160401b179055600101546000818152600b6020526040902054938415611e33576000805160206125c983398151915294611dd792600052600b6020526000190160406000205593611daa565b632637b87b60e11b60005260046000fd5b15611d6557600186015460005260076020526040600020611e668882546123fc565b9055611d65565b506003546001600160a01b03161515611cc9565b506004541515611cc3565b632b9003a960e11b60005260046000fd5b6327e53c9b60e11b8452600484fd5b630b5ccdb760e01b8352600483fd5b50346104b35760203660031901126104b357600435801561059557338252600660205280604083205410611f6457338252600660205260408220611f0082825461236b565b9055611f0e8160095461236b565b600955611f1a81612471565b8280808084335af1611f2a61238e565b50156103235760405191825260208201527fc4e1a5319444290d93b602df0f4bd7346429f672b77cd4c729eecc0f7974a2f860403392a280f35b631e9acf1760e31b8252600482fd5b50346104b35760203660031901126104b3576004359081156112ea576040516360e410dd60e11b81526020816004817f00000000000000000000000000000000000000000000000000000000000000006001600160a01b03165afa908115612174578291612142575b50801561059557670de0b6b3a76400008302838104670de0b6b3a76400000361212e57906120099161241c565b9081156112ea57506040516323b872dd60e01b81523360048201523060248201526044810183905260208160648160007f00000000000000000000000000000000000000000000000000000000000000006001600160a01b03165af1908115612122576000916120e8575b50156120d75733600052600660205260406000206120938282546123fc565b90556120a1816009546123fc565b60095560405191825260208201527fe77a4a84a4bca54aad23cbaaa6da4f6dcd851f121afff411553791a3aacf06fc60403392a2005b6312171d8360e31b60005260046000fd5b90506020813d60201161211a575b81612103602093836122f2565b810103126103e157612114906123cd565b38612074565b3d91506120f6565b6040513d6000823e3d90fd5b634e487b7160e01b83526011600452602483fd5b90506020813d60201161216c575b8161215d602093836122f2565b81010312610bb9575138611fdc565b3d9150612150565b6040513d84823e3d90fd5b50346104b357806003193601126104b35760209054604051908152f35b50346104b35760203660031901126104b3576004356001600160a01b03811690819003610bb957604051638da5cb5b60e01b81526020816004817f00000000000000000000000000000000000000000000000000000000000000006001600160a01b03165afa9081156106c6578391612263575b506001600160a01b0316330361068857600354816001600160a01b0382167f0c5d18caa145415182f8ad3d2563da586609cec04ac8505274d87bc43f00b4a48580a36001600160a01b0319161760035580f35b61227c915060203d6020116106bf576106b181836122f2565b38612210565b905034610bb95781600319360112610bb9576020906008548152f35b60609060031901126103e157600435906024359060443590565b90600182811c921680156122e8575b60208310146122d257565b634e487b7160e01b600052602260045260246000fd5b91607f16916122c7565b90601f801991011681019081106001600160401b0382111761231357604052565b634e487b7160e01b600052604160045260246000fd5b9060028210156123365752565b634e487b7160e01b600052602160045260246000fd5b908160209103126103e157516001600160a01b03811681036103e15790565b9190820391821161237857565b634e487b7160e01b600052601160045260246000fd5b3d156123c8573d906001600160401b03821161231357604051916123bc601f8201601f1916602001846122f2565b82523d6000602084013e565b606090565b519081151582036103e157565b908160609103126103e1578051916123f96040602084015193016123cd565b90565b9190820180921161237857565b8181029291811591840414171561237857565b8115612426570490565b634e487b7160e01b600052601260045260246000fd5b60ff166012039060ff821161237857565b60ff6011199116019060ff821161237857565b60ff16604d811161237857600a0a90565b7f00000000000000000000000000000000000000000000000000000000000000009060ff8216806012146124d5576012116124c0576124ba6124b56123f99361244d565b612460565b90612409565b6124cf6124b56123f99361243c565b9061241c565b50905090565b3415612512576124ea81612471565b3403612501576124fc906009546123fc565b600955565b63749b593960e01b60005260046000fd5b336000526006602052806040600020541061254457336000526006602052612540604060002091825461236b565b9055565b631e9acf1760e31b60005260046000fd5b7f00000000000000000000000000000000000000000000000000000000000000009060ff8216806012146124d557601211612599576124cf6124b56123f99361244d565b6124ba6124b56123f99361243c565b906001600160401b03809116911601906001600160401b0382116123785756fe92090a17fee68a494651e2a9dba8f9e960c7699c8ae8da3f6ca1df22707cf32ea2646970667358221220cdf1fa4baf6f081234ac0f691238b5ac66a27a0a6af412a8cc6b05ecc8c86c8064736f6c634300081c0033","linkReferences":{}},"methodIdentifiers":{"depositDot()":"6cddf290","depositUsdcAsDot(uint256)":"0fc0a82d","depositUsdcAsDot(uint256,uint256,uint256)":"f35dc75e","dotBalances(address)":"787da52d","getDotBalances(address)":"80d698dc","internalCirculating()":"6b6df5da","modelPriceOracle()":"9bfad3cd","nativeDotDecimals()":"77fb401a","nextSessionId()":"49bbf7da","openSession(bytes32,uint8,bytes32,uint256,string)":"4e50829d","openSessionCountByNode(bytes32)":"a7c91b1a","priceOracle()":"2630c12f","protocolBalances()":"a5c5ad11","protocolFeeBps()":"35659fb8","protocolTreasury()":"803db96d","providerBalances(bytes32)":"6d2079bf","recordUsage(uint256,uint256,uint256)":"6f4ea56a","recordUsageRole()":"e0544f16","registry()":"7b103999","sessions(uint256)":"83c4b7a3","setProtocolFeeBps(uint256)":"c0417e58","setProtocolTreasury(address)":"0c5a61f8","setRecordUsage(address)":"1cf764a5","setSettlementOperator(address)":"448758d5","setTeePriceMultiplierBps(uint256)":"cf9071be","settleByOperatorFull(uint256,uint256,uint256)":"199b3e29","settleByOperatorPartial(uint256,uint256,uint256)":"43078f73","settleFull(uint256,uint256,uint256)":"32e5cd9b","settlePartial(uint256,uint256,uint256)":"750e957e","settlementOperator()":"1b6984e8","teePriceMultiplierBps()":"0cfee3fe","totalLockedInternal()":"0164b11f","usdc()":"3e413bee","withdrawDot(uint256)":"100ee50f","withdrawProtocolDot(uint256)":"d1dbb211","withdrawProviderDot(bytes32,uint256)":"b72c2850"},"id":21}