{"abi":[{"type":"constructor","inputs":[{"name":"registry_","type":"address","internalType":"contract IProviderRegistry"},{"name":"priceOracle_","type":"address","internalType":"contract IPriceOracle"},{"name":"modelPriceOracle_","type":"address","internalType":"contract IModelPriceOracle"},{"name":"usdc_","type":"address","internalType":"contract IERC20"},{"name":"nativeDotDecimals_","type":"uint8","internalType":"uint8"}],"stateMutability":"nonpayable"},{"type":"receive","stateMutability":"payable"},{"type":"function","name":"depositDot","inputs":[],"outputs":[],"stateMutability":"payable"},{"type":"function","name":"depositUsdcAsDot","inputs":[{"name":"usdcAmount","type":"uint256","internalType":"uint256"}],"outputs":[],"stateMutability":"nonpayable"},{"type":"function","name":"depositUsdcAsDot","inputs":[{"name":"usdcAmount","type":"uint256","internalType":"uint256"},{"name":"minDotInternalOut","type":"uint256","internalType":"uint256"},{"name":"maxOracleAgeSecs","type":"uint256","internalType":"uint256"}],"outputs":[],"stateMutability":"nonpayable"},{"type":"function","name":"dotBalances","inputs":[{"name":"","type":"address","internalType":"address"}],"outputs":[{"name":"","type":"uint256","internalType":"uint256"}],"stateMutability":"view"},{"type":"function","name":"getDotBalances","inputs":[{"name":"user","type":"address","internalType":"address"}],"outputs":[{"name":"","type":"uint256","internalType":"uint256"}],"stateMutability":"view"},{"type":"function","name":"internalCirculating","inputs":[],"outputs":[{"name":"","type":"uint256","internalType":"uint256"}],"stateMutability":"view"},{"type":"function","name":"modelPriceOracle","inputs":[],"outputs":[{"name":"","type":"address","internalType":"contract IModelPriceOracle"}],"stateMutability":"view"},{"type":"function","name":"nativeDotDecimals","inputs":[],"outputs":[{"name":"","type":"uint8","internalType":"uint8"}],"stateMutability":"view"},{"type":"function","name":"nextSessionId","inputs":[],"outputs":[{"name":"","type":"uint256","internalType":"uint256"}],"stateMutability":"view"},{"type":"function","name":"openSession","inputs":[{"name":"nodeId","type":"bytes32","internalType":"bytes32"},{"name":"tier","type":"uint8","internalType":"enum SecurityTier"},{"name":"modelId","type":"bytes32","internalType":"bytes32"},{"name":"amountInternal","type":"uint256","internalType":"uint256"}],"outputs":[],"stateMutability":"payable"},{"type":"function","name":"openSessionCountByNode","inputs":[{"name":"nodeId","type":"bytes32","internalType":"bytes32"}],"outputs":[{"name":"","type":"uint256","internalType":"uint256"}],"stateMutability":"view"},{"type":"function","name":"priceOracle","inputs":[],"outputs":[{"name":"","type":"address","internalType":"contract IPriceOracle"}],"stateMutability":"view"},{"type":"function","name":"providerBalances","inputs":[{"name":"","type":"bytes32","internalType":"bytes32"}],"outputs":[{"name":"","type":"uint256","internalType":"uint256"}],"stateMutability":"view"},{"type":"function","name":"recordUsage","inputs":[{"name":"sessionId","type":"uint256","internalType":"uint256"},{"name":"inputTokensDelta","type":"uint256","internalType":"uint256"},{"name":"outputTokensDelta","type":"uint256","internalType":"uint256"}],"outputs":[],"stateMutability":"nonpayable"},{"type":"function","name":"registry","inputs":[],"outputs":[{"name":"","type":"address","internalType":"contract IProviderRegistry"}],"stateMutability":"view"},{"type":"function","name":"sessions","inputs":[{"name":"","type":"uint256","internalType":"uint256"}],"outputs":[{"name":"user","type":"address","internalType":"address"},{"name":"nodeId","type":"bytes32","internalType":"bytes32"},{"name":"modelId","type":"bytes32","internalType":"bytes32"},{"name":"tier","type":"uint8","internalType":"enum SecurityTier"},{"name":"lockedInternal","type":"uint256","internalType":"uint256"},{"name":"usageRecorded","type":"uint256","internalType":"uint256"},{"name":"paidToProviderInternal","type":"uint256","internalType":"uint256"},{"name":"openingInternal","type":"uint256","internalType":"uint256"},{"name":"openedAt","type":"uint64","internalType":"uint64"},{"name":"settled","type":"bool","internalType":"bool"},{"name":"inputTokensRecorded","type":"uint64","internalType":"uint64"},{"name":"outputTokensRecorded","type":"uint64","internalType":"uint64"}],"stateMutability":"view"},{"type":"function","name":"setSettlementOperator","inputs":[{"name":"next","type":"address","internalType":"address"}],"outputs":[],"stateMutability":"nonpayable"},{"type":"function","name":"setTeePriceMultiplierBps","inputs":[{"name":"bps","type":"uint256","internalType":"uint256"}],"outputs":[],"stateMutability":"nonpayable"},{"type":"function","name":"settleByOperatorFull","inputs":[{"name":"sessionId","type":"uint256","internalType":"uint256"},{"name":"toProvider","type":"uint256","internalType":"uint256"},{"name":"toUser","type":"uint256","internalType":"uint256"}],"outputs":[],"stateMutability":"nonpayable"},{"type":"function","name":"settleByOperatorPartial","inputs":[{"name":"sessionId","type":"uint256","internalType":"uint256"},{"name":"toProvider","type":"uint256","internalType":"uint256"},{"name":"toUser","type":"uint256","internalType":"uint256"}],"outputs":[],"stateMutability":"nonpayable"},{"type":"function","name":"settleFull","inputs":[{"name":"sessionId","type":"uint256","internalType":"uint256"},{"name":"toProvider","type":"uint256","internalType":"uint256"},{"name":"toUser","type":"uint256","internalType":"uint256"}],"outputs":[],"stateMutability":"nonpayable"},{"type":"function","name":"settlePartial","inputs":[{"name":"sessionId","type":"uint256","internalType":"uint256"},{"name":"toProvider","type":"uint256","internalType":"uint256"},{"name":"toUser","type":"uint256","internalType":"uint256"}],"outputs":[],"stateMutability":"nonpayable"},{"type":"function","name":"settlementOperator","inputs":[],"outputs":[{"name":"","type":"address","internalType":"address"}],"stateMutability":"view"},{"type":"function","name":"teePriceMultiplierBps","inputs":[],"outputs":[{"name":"","type":"uint256","internalType":"uint256"}],"stateMutability":"view"},{"type":"function","name":"totalLockedInternal","inputs":[],"outputs":[{"name":"","type":"uint256","internalType":"uint256"}],"stateMutability":"view"},{"type":"function","name":"usdc","inputs":[],"outputs":[{"name":"","type":"address","internalType":"contract IERC20"}],"stateMutability":"view"},{"type":"function","name":"withdrawDot","inputs":[{"name":"amountInternal","type":"uint256","internalType":"uint256"}],"outputs":[],"stateMutability":"nonpayable"},{"type":"function","name":"withdrawProviderDot","inputs":[{"name":"nodeId","type":"bytes32","internalType":"bytes32"},{"name":"amountInternal","type":"uint256","internalType":"uint256"}],"outputs":[],"stateMutability":"nonpayable"},{"type":"event","name":"DotDeposited","inputs":[{"name":"user","type":"address","indexed":true,"internalType":"address"},{"name":"amountNative","type":"uint256","indexed":false,"internalType":"uint256"},{"name":"creditedInternal","type":"uint256","indexed":false,"internalType":"uint256"}],"anonymous":false},{"type":"event","name":"DotWithdrawn","inputs":[{"name":"user","type":"address","indexed":true,"internalType":"address"},{"name":"burnedInternal","type":"uint256","indexed":false,"internalType":"uint256"},{"name":"paidNative","type":"uint256","indexed":false,"internalType":"uint256"}],"anonymous":false},{"type":"event","name":"ProviderDotWithdrawn","inputs":[{"name":"provider","type":"address","indexed":true,"internalType":"address"},{"name":"burnedInternal","type":"uint256","indexed":false,"internalType":"uint256"},{"name":"paidNative","type":"uint256","indexed":false,"internalType":"uint256"}],"anonymous":false},{"type":"event","name":"SessionFundsReleased","inputs":[{"name":"sessionId","type":"uint256","indexed":true,"internalType":"uint256"},{"name":"toProvider","type":"uint256","indexed":false,"internalType":"uint256"},{"name":"toUser","type":"uint256","indexed":false,"internalType":"uint256"},{"name":"remainingLockedInternal","type":"uint256","indexed":false,"internalType":"uint256"}],"anonymous":false},{"type":"event","name":"SessionOpened","inputs":[{"name":"sessionId","type":"uint256","indexed":true,"internalType":"uint256"},{"name":"user","type":"address","indexed":true,"internalType":"address"},{"name":"nodeId","type":"bytes32","indexed":true,"internalType":"bytes32"},{"name":"tier","type":"uint8","indexed":false,"internalType":"enum SecurityTier"},{"name":"modelId","type":"bytes32","indexed":false,"internalType":"bytes32"},{"name":"lockedInternal","type":"uint256","indexed":false,"internalType":"uint256"}],"anonymous":false},{"type":"event","name":"SettlementOperatorUpdated","inputs":[{"name":"previous","type":"address","indexed":true,"internalType":"address"},{"name":"next","type":"address","indexed":true,"internalType":"address"}],"anonymous":false},{"type":"event","name":"TeePriceMultiplierUpdated","inputs":[{"name":"previousBps","type":"uint256","indexed":false,"internalType":"uint256"},{"name":"nextBps","type":"uint256","indexed":false,"internalType":"uint256"}],"anonymous":false},{"type":"event","name":"UsageRecorded","inputs":[{"name":"sessionId","type":"uint256","indexed":true,"internalType":"uint256"},{"name":"inputTokensDelta","type":"uint256","indexed":false,"internalType":"uint256"},{"name":"outputTokensDelta","type":"uint256","indexed":false,"internalType":"uint256"},{"name":"usageTotalInternal","type":"uint256","indexed":false,"internalType":"uint256"}],"anonymous":false},{"type":"event","name":"UsdcDepositedAsDot","inputs":[{"name":"user","type":"address","indexed":true,"internalType":"address"},{"name":"usdcAmount","type":"uint256","indexed":false,"internalType":"uint256"},{"name":"creditedInternal","type":"uint256","indexed":false,"internalType":"uint256"}],"anonymous":false},{"type":"error","name":"AlreadySettled","inputs":[]},{"type":"error","name":"BadAmount","inputs":[]},{"type":"error","name":"BadNativeDecimals","inputs":[]},{"type":"error","name":"BadSettleSplit","inputs":[]},{"type":"error","name":"BadTeeMultiplier","inputs":[]},{"type":"error","name":"BadTokenDelta","inputs":[]},{"type":"error","name":"InsufficientBalance","inputs":[]},{"type":"error","name":"NotRegistryOwner","inputs":[]},{"type":"error","name":"NotSessionProvider","inputs":[]},{"type":"error","name":"NotSessionUser","inputs":[]},{"type":"error","name":"NotSettlementOperator","inputs":[]},{"type":"error","name":"OpenSessionCounterUnderflow","inputs":[]},{"type":"error","name":"OracleStale","inputs":[]},{"type":"error","name":"Slippage","inputs":[]},{"type":"error","name":"TransferFailed","inputs":[]},{"type":"error","name":"UnknownSession","inputs":[]},{"type":"error","name":"UnsupportedTier","inputs":[]}],"bytecode":{"object":"0x610120604052613a9860005534801561001757600080fd5b506040516121ca3803806121ca833981016040819052610036916100af565b6001600160a01b0380861660805284811660a05283811660c052821660e05260ff811615806100685750601260ff8216115b156100865760405163a709fe1360e01b815260040160405180910390fd5b60ff16610100525061012a92505050565b6001600160a01b03811681146100ac57600080fd5b50565b600080600080600060a086880312156100c757600080fd5b85516100d281610097565b60208701519095506100e381610097565b60408701519094506100f481610097565b606087015190935061010581610097565b608087015190925060ff8116811461011c57600080fd5b809150509295509295909350565b60805160a05160c05160e051610100516120086101c26000396000818161041b015281816118420152611b5c015260008181610306015261172d0152600081816105ae01528181610b56015261119f0152600081816102b20152818161154001526115fa01526000818161048e0152818161084f01528181610a5401528181610dc501528181610f7d01526110f401526120086000f3fe6080604052600436106101bb5760003560e01c80636d2079bf116100ec57806383c4b7a31161008a578063b72c285011610064578063b72c2850146105fd578063cf9071be1461061d578063dee29a011461063d578063f35dc75e1461065057600080fd5b806383c4b7a3146104e65780639bfad3cd1461059c578063a7c91b1a146105d057600080fd5b806377fb401a116100c657806377fb401a14610409578063787da52d1461044f5780637b1039991461047c57806380d698dc146104b057600080fd5b80636d2079bf1461039c5780636f4ea56a146103c9578063750e957e146103e957600080fd5b806332e5cd9b11610159578063448758d511610133578063448758d51461034857806349bbf7da146103685780636b6df5da1461037e5780636cddf2901461039457600080fd5b806332e5cd9b146102d45780633e413bee146102f457806343078f731461032857600080fd5b8063100ee50f11610195578063100ee50f14610228578063199b3e29146102485780631b6984e8146102685780632630c12f146102a057600080fd5b80630164b11f146101c75780630cfee3fe146101f05780630fc0a82d1461020657600080fd5b366101c257005b600080fd5b3480156101d357600080fd5b506101dd60045481565b6040519081526020015b60405180910390f35b3480156101fc57600080fd5b506101dd60005481565b34801561021257600080fd5b50610226610221366004611baf565b610670565b005b34801561023457600080fd5b50610226610243366004611baf565b610681565b34801561025457600080fd5b50610226610263366004611bc8565b6107c7565b34801561027457600080fd5b50600154610288906001600160a01b031681565b6040516001600160a01b0390911681526020016101e7565b3480156102ac57600080fd5b506102887f000000000000000000000000000000000000000000000000000000000000000081565b3480156102e057600080fd5b506102266102ef366004611bc8565b610806565b34801561030057600080fd5b506102887f000000000000000000000000000000000000000000000000000000000000000081565b34801561033457600080fd5b50610226610343366004611bc8565b610814565b34801561035457600080fd5b50610226610363366004611c09565b61084d565b34801561037457600080fd5b506101dd60065481565b34801561038a57600080fd5b506101dd60055481565b61022661095c565b3480156103a857600080fd5b506101dd6103b7366004611baf565b60036020526000908152604090205481565b3480156103d557600080fd5b506102266103e4366004611bc8565b610a08565b3480156103f557600080fd5b50610226610404366004611bc8565b610d75565b34801561041557600080fd5b5061043d7f000000000000000000000000000000000000000000000000000000000000000081565b60405160ff90911681526020016101e7565b34801561045b57600080fd5b506101dd61046a366004611c09565b60026020526000908152604090205481565b34801561048857600080fd5b506102887f000000000000000000000000000000000000000000000000000000000000000081565b3480156104bc57600080fd5b506101dd6104cb366004611c09565b6001600160a01b031660009081526002602052604090205490565b3480156104f257600080fd5b50610584610501366004611baf565b60086020819052600091825260409091208054600182015460028301546003840154600485015460058601546006870154600788015497909801546001600160a01b03909616979496939560ff938416959294919367ffffffffffffffff80831692600160401b810490921691600160481b8104821691600160881b909104168c565b6040516101e79c9b9a99989796959493929190611c5e565b3480156105a857600080fd5b506102887f000000000000000000000000000000000000000000000000000000000000000081565b3480156105dc57600080fd5b506101dd6105eb366004611baf565b60076020526000908152604090205481565b34801561060957600080fd5b50610226610618366004611cdd565b610d84565b34801561062957600080fd5b50610226610638366004611baf565b610f7b565b61022661064b366004611cff565b61109e565b34801561065c57600080fd5b5061022661066b366004611bc8565b61150b565b61067e816000600019611512565b50565b806000036106a25760405163749b593960e01b815260040160405180910390fd5b336000908152600260205260409020548111156106d257604051631e9acf1760e31b815260040160405180910390fd5b33600090815260026020526040812080548392906106f1908490611d56565b92505081905550806005600082825461070a9190611d56565b909155506000905061071b8261183e565b604051909150600090339083908381818185875af1925050503d8060008114610760576040519150601f19603f3d011682016040523d82523d6000602084013e610765565b606091505b5050905080610787576040516312171d8360e31b815260040160405180910390fd5b604080518481526020810184905233917fc4e1a5319444290d93b602df0f4bd7346429f672b77cd4c729eecc0f7974a2f8910160405180910390a2505050565b6001546001600160a01b031633146107f257604051630b5ccdb760e01b815260040160405180910390fd5b610801838383600160006118c6565b505050565b6108018383836001806118c6565b6001546001600160a01b0316331461083f57604051630b5ccdb760e01b815260040160405180910390fd5b6108018383836000806118c6565b7f00000000000000000000000000000000000000000000000000000000000000006001600160a01b0316638da5cb5b6040518163ffffffff1660e01b8152600401602060405180830381865afa1580156108ab573d6000803e3d6000fd5b505050506040513d601f19601f820116820180604052508101906108cf9190611d6f565b6001600160a01b0316336001600160a01b0316146109005760405163778d468d60e11b815260040160405180910390fd5b6001546040516001600160a01b038084169216907f1fd86ee97516e805df1aa58110ecb8ff02b3e66f573e25bf47e2c45bd2537c4f90600090a3600180546001600160a01b0319166001600160a01b0392909216919091179055565b3460000361097d5760405163749b593960e01b815260040160405180910390fd5b600061098834611b58565b336000908152600260205260408120805492935083929091906109ac908490611d8c565b9250508190555080600560008282546109c59190611d8c565b9091555050604080513481526020810183905233917f5b3d638b33196811661faabd4f98d7b79505dd3644c0320ac4cb4efa072d3159910160405180910390a250565b600083815260086020526040902080546001600160a01b0316610a3e576040516327e53c9b60e11b815260040160405180910390fd5b600181015460405163360c410760e01b815233917f00000000000000000000000000000000000000000000000000000000000000006001600160a01b03169163360c410791610a939160040190815260200190565b602060405180830381865afa158015610ab0573d6000803e3d6000fd5b505050506040513d601f19601f82011682018060405250810190610ad49190611d6f565b6001600160a01b031614610afb5760405163f7e3c90d60e01b815260040160405180910390fd5b6008810154600160401b900460ff1615610b275760405162560ff960e81b815260040160405180910390fd5b82158015610b33575081155b15610b515760405163f994ee0f60e01b815260040160405180910390fd5b6000807f00000000000000000000000000000000000000000000000000000000000000006001600160a01b0316635ec5381584600201546040518263ffffffff1660e01b8152600401610ba691815260200190565b606060405180830381865afa158015610bc3573d6000803e3d6000fd5b505050506040513d601f19601f82011682018060405250810190610be79190611db4565b50909250905060006103e8610bfc8387611dea565b610c069190611e01565b6103e8610c138589611dea565b610c1d9190611e01565b610c279190611d8c565b90506001600385015460ff166001811115610c4457610c44611c26565b03610c675761271060005482610c5a9190611dea565b610c649190611e01565b90505b80846005016000828254610c7b9190611d8c565b9091555050600884018054879190600990610ca8908490600160481b900467ffffffffffffffff16611e23565b92506101000a81548167ffffffffffffffff021916908367ffffffffffffffff160217905550848460080160118282829054906101000a900467ffffffffffffffff16610cf59190611e23565b92506101000a81548167ffffffffffffffff021916908367ffffffffffffffff160217905550867feaab2658e61a52ed505263c32acae2e61ea8d6b6e9b5824475d27cf4279e134a87878760050154604051610d64939291909283526020830191909152604082015260600190565b60405180910390a250505050505050565b610801838383600060016118c6565b80600003610da55760405163749b593960e01b815260040160405180910390fd5b60405163360c410760e01b81526004810183905233906001600160a01b037f0000000000000000000000000000000000000000000000000000000000000000169063360c410790602401602060405180830381865afa158015610e0c573d6000803e3d6000fd5b505050506040513d601f19601f82011682018060405250810190610e309190611d6f565b6001600160a01b031614610e575760405163f7e3c90d60e01b815260040160405180910390fd5b600082815260036020526040902054811115610e8657604051631e9acf1760e31b815260040160405180910390fd5b60008281526003602052604081208054839290610ea4908490611d56565b925050819055508060056000828254610ebd9190611d56565b9091555060009050610ece8261183e565b604051909150600090339083908381818185875af1925050503d8060008114610f13576040519150601f19603f3d011682016040523d82523d6000602084013e610f18565b606091505b5050905080610f3a576040516312171d8360e31b815260040160405180910390fd5b604080518481526020810184905233917fb8f77dcb46609e9bb8c47ec6f49344b40aa275b4ad99d0a7f6ddf81a498497b6910160405180910390a250505050565b7f00000000000000000000000000000000000000000000000000000000000000006001600160a01b0316638da5cb5b6040518163ffffffff1660e01b8152600401602060405180830381865afa158015610fd9573d6000803e3d6000fd5b505050506040513d601f19601f82011682018060405250810190610ffd9190611d6f565b6001600160a01b0316336001600160a01b03161461102e5760405163778d468d60e11b815260040160405180910390fd5b61271081108061103f575061753081115b1561105d5760405163635d45df60e01b815260040160405180910390fd5b60005460408051918252602082018390527f4dbe4d1de3a71ba292ddd854d6228c5515ae4fe72137fc52b7dd4502902bf6aa910160405180910390a1600055565b806000036110bf5760405163749b593960e01b815260040160405180910390fd5b816110dd5760405163749b593960e01b815260040160405180910390fd5b604051630187185760e11b81526001600160a01b037f0000000000000000000000000000000000000000000000000000000000000000169063030e30ae9061112b9087908790600401611e43565b602060405180830381865afa158015611148573d6000803e3d6000fd5b505050506040513d601f19601f8201168201806040525081019061116c9190611e57565b6111895760405163b67d64bb60e01b815260040160405180910390fd5b604051635ec5381560e01b8152600481018390527f00000000000000000000000000000000000000000000000000000000000000006001600160a01b031690635ec5381590602401606060405180830381865afa1580156111ee573d6000803e3d6000fd5b505050506040513d601f19601f820116820180604052508101906112129190611db4565b50506006805460009250908261122783611e72565b919050559050604051806101800160405280336001600160a01b0316815260200186815260200184815260200185600181111561126657611266611c26565b81526020808201859052600060408084018290526060808501839052608085018890524267ffffffffffffffff1660a086015260c0850183905260e085018390526101009094018290528582526008835290819020845181546001600160a01b0319166001600160a01b03909116178155918401516001808401919091559084015160028301559183015160038201805492939192909160ff199190911690838181111561131657611316611c26565b0217905550608082015160048083019190915560a0830151600583015560c0830151600683015560e08301516007830155610100830151600890920180546101208501516101408601516101609096015167ffffffffffffffff908116600160881b0267ffffffffffffffff60881b19978216600160481b029790971678ffffffffffffffffffffffffffffffff00000000000000000019921515600160401b0268ffffffffffffffffff19909416919096161791909117169290921792909217905580548391906000906113ec908490611d8c565b90915550506000858152600760205260408120805460019290611410908490611d8c565b909155505034600003611477573360009081526002602052604090205482111561144d57604051631e9acf1760e31b815260040160405180910390fd5b336000908152600260205260408120805484929061146c908490611d56565b909155506114bd9050565b60006114828361183e565b90508034146114a45760405163749b593960e01b815260040160405180910390fd5b82600560008282546114b69190611d8c565b9091555050505b84336001600160a01b0316827f2dae641332627251794b700dc95a1f4f82bb180b43166e0c8174b01ecef2b55b8787876040516114fc93929190611e8b565b60405180910390a45050505050565b6108018383835b826000036115335760405163749b593960e01b815260040160405180910390fd5b60001981146115f65760007f00000000000000000000000000000000000000000000000000000000000000006001600160a01b031663b11c4eec6040518163ffffffff1660e01b8152600401602060405180830381865afa15801561159c573d6000803e3d6000fd5b505050506040513d601f19601f820116820180604052508101906115c09190611eaa565b90508015806115d757506115d48282611d8c565b42115b156115f457604051628af0d360e31b815260040160405180910390fd5b505b60007f00000000000000000000000000000000000000000000000000000000000000006001600160a01b031663c1c821ba6040518163ffffffff1660e01b8152600401602060405180830381865afa158015611656573d6000803e3d6000fd5b505050506040513d601f19601f8201168201806040525081019061167a9190611eaa565b90508060000361169d5760405163749b593960e01b815260040160405180910390fd5b6000816116b286670de0b6b3a7640000611dea565b6116bc9190611e01565b9050806000036116df5760405163749b593960e01b815260040160405180910390fd5b83158015906116ed57508381105b1561170b576040516307dd37f760e41b815260040160405180910390fd5b6040516323b872dd60e01b8152336004820152306024820152604481018690527f00000000000000000000000000000000000000000000000000000000000000006001600160a01b0316906323b872dd906064016020604051808303816000875af115801561177e573d6000803e3d6000fd5b505050506040513d601f19601f820116820180604052508101906117a29190611e57565b6117bf576040516312171d8360e31b815260040160405180910390fd5b33600090815260026020526040812080548392906117de908490611d8c565b9250508190555080600560008282546117f79190611d8c565b9091555050604080518681526020810183905233917fe77a4a84a4bca54aad23cbaaa6da4f6dcd851f121afff411553791a3aacf06fc910160405180910390a25050505050565b60007f000000000000000000000000000000000000000000000000000000000000000060ff8116601203611873575090919050565b60ff8116601211156118a65761188a816012611ec3565b61189590600a611fc3565b61189f9084611e01565b9392505050565b6118b1601282611ec3565b6118bc90600a611fc3565b61189f9084611dea565b600085815260086020526040902080546001600160a01b03166118fc576040516327e53c9b60e11b815260040160405180910390fd5b6008810154600160401b900460ff16156119285760405162560ff960e81b815260040160405180910390fd5b81801561193f575080546001600160a01b03163314155b1561195d576040516395bd9db960e01b815260040160405180910390fd5b60006119698587611d8c565b9050831561199a578160040154811461199557604051632b9003a960e11b815260040160405180910390fd5b6119c8565b8015806119aa5750816004015481115b156119c857604051632b9003a960e11b815260040160405180910390fd5b60008683600601546119da9190611d8c565b90508260050154811115611a0157604051632b9003a960e11b815260040160405180910390fd5b80836006018190555081836004016000828254611a1e9190611d56565b925050819055508160046000828254611a379190611d56565b9091555050600183015460009081526003602052604081208054899290611a5f908490611d8c565b909155505082546001600160a01b031660009081526002602052604081208054889290611a8d908490611d8c565b90915550506004830154600003611b055760088301805468ff00000000000000001916600160401b179055600183015460008181526007602052604081205490819003611aed57604051632637b87b60e11b815260040160405180910390fd5b60009182526007602052604090912060001990910190555b600483015460408051898152602081018990529081019190915288907f92090a17fee68a494651e2a9dba8f9e960c7699c8ae8da3f6ca1df22707cf32e9060600160405180910390a25050505050505050565b60007f000000000000000000000000000000000000000000000000000000000000000060ff8116601203611b8d575090919050565b60ff811660121115611ba4576118b1816012611ec3565b61188a601282611ec3565b600060208284031215611bc157600080fd5b5035919050565b600080600060608486031215611bdd57600080fd5b505081359360208301359350604090920135919050565b6001600160a01b038116811461067e57600080fd5b600060208284031215611c1b57600080fd5b813561189f81611bf4565b634e487b7160e01b600052602160045260246000fd5b60028110611c5a57634e487b7160e01b600052602160045260246000fd5b9052565b6001600160a01b038d168152602081018c9052604081018b90526101808101611c8a606083018c611c3c565b608082019990995260a081019790975260c087019590955260e086019390935267ffffffffffffffff91821661010086015215156101208501529081166101408401521661016090910152949350505050565b60008060408385031215611cf057600080fd5b50508035926020909101359150565b60008060008060808587031215611d1557600080fd5b84359350602085013560028110611d2b57600080fd5b93969395505050506040820135916060013590565b634e487b7160e01b600052601160045260246000fd5b81810381811115611d6957611d69611d40565b92915050565b600060208284031215611d8157600080fd5b815161189f81611bf4565b80820180821115611d6957611d69611d40565b80518015158114611daf57600080fd5b919050565b600080600060608486031215611dc957600080fd5b835160208501519093509150611de160408501611d9f565b90509250925092565b8082028115828204841417611d6957611d69611d40565b600082611e1e57634e487b7160e01b600052601260045260246000fd5b500490565b67ffffffffffffffff8181168382160190811115611d6957611d69611d40565b8281526040810161189f6020830184611c3c565b600060208284031215611e6957600080fd5b61189f82611d9f565b600060018201611e8457611e84611d40565b5060010190565b60608101611e998286611c3c565b602082019390935260400152919050565b600060208284031215611ebc57600080fd5b5051919050565b60ff8281168282160390811115611d6957611d69611d40565b6001815b6001841115611f1757808504811115611efb57611efb611d40565b6001841615611f0957908102905b60019390931c928002611ee0565b935093915050565b600082611f2e57506001611d69565b81611f3b57506000611d69565b8160018114611f515760028114611f5b57611f77565b6001915050611d69565b60ff841115611f6c57611f6c611d40565b50506001821b611d69565b5060208310610133831016604e8410600b8410161715611f9a575081810a611d69565b611fa76000198484611edc565b8060001904821115611fbb57611fbb611d40565b029392505050565b600061189f60ff841683611f1f56fea26469706673582212207ca86dedb94d0788517cedd24ab3c819c763f72e6b7e4df6ba5187d0f8d9d2a664736f6c634300081c0033","linkReferences":{}},"methodIdentifiers":{"depositDot()":"6cddf290","depositUsdcAsDot(uint256)":"0fc0a82d","depositUsdcAsDot(uint256,uint256,uint256)":"f35dc75e","dotBalances(address)":"787da52d","getDotBalances(address)":"80d698dc","internalCirculating()":"6b6df5da","modelPriceOracle()":"9bfad3cd","nativeDotDecimals()":"77fb401a","nextSessionId()":"49bbf7da","openSession(bytes32,uint8,bytes32,uint256)":"dee29a01","openSessionCountByNode(bytes32)":"a7c91b1a","priceOracle()":"2630c12f","providerBalances(bytes32)":"6d2079bf","recordUsage(uint256,uint256,uint256)":"6f4ea56a","registry()":"7b103999","sessions(uint256)":"83c4b7a3","setSettlementOperator(address)":"448758d5","setTeePriceMultiplierBps(uint256)":"cf9071be","settleByOperatorFull(uint256,uint256,uint256)":"199b3e29","settleByOperatorPartial(uint256,uint256,uint256)":"43078f73","settleFull(uint256,uint256,uint256)":"32e5cd9b","settlePartial(uint256,uint256,uint256)":"750e957e","settlementOperator()":"1b6984e8","teePriceMultiplierBps()":"0cfee3fe","totalLockedInternal()":"0164b11f","usdc()":"3e413bee","withdrawDot(uint256)":"100ee50f","withdrawProviderDot(bytes32,uint256)":"b72c2850"},"id":29}